{
  "contractName": "fst_erc_1155",
  "abi": [
    {
      "inputs": [],
      "stateMutability": "nonpayable",
      "type": "constructor"
    },
    {
      "anonymous": false,
      "inputs": [
        {
          "indexed": true,
          "internalType": "address",
          "name": "account",
          "type": "address"
        },
        {
          "indexed": true,
          "internalType": "address",
          "name": "operator",
          "type": "address"
        },
        {
          "indexed": false,
          "internalType": "bool",
          "name": "approved",
          "type": "bool"
        }
      ],
      "name": "ApprovalForAll",
      "type": "event"
    },
    {
      "anonymous": false,
      "inputs": [
        {
          "indexed": true,
          "internalType": "address[]",
          "name": "to",
          "type": "address[]"
        },
        {
          "indexed": true,
          "internalType": "uint256[]",
          "name": "pscIds",
          "type": "uint256[]"
        },
        {
          "indexed": true,
          "internalType": "uint256[]",
          "name": "amounts",
          "type": "uint256[]"
        }
      ],
      "name": "BatchTransferPSC",
      "type": "event"
    },
    {
      "anonymous": false,
      "inputs": [
        {
          "indexed": true,
          "internalType": "address",
          "name": "account",
          "type": "address"
        },
        {
          "indexed": false,
          "internalType": "uint256",
          "name": "id",
          "type": "uint256"
        },
        {
          "indexed": false,
          "internalType": "uint256",
          "name": "amount",
          "type": "uint256"
        }
      ],
      "name": "Minted",
      "type": "event"
    },
    {
      "anonymous": false,
      "inputs": [
        {
          "indexed": true,
          "internalType": "address",
          "name": "previousOwner",
          "type": "address"
        },
        {
          "indexed": true,
          "internalType": "address",
          "name": "newOwner",
          "type": "address"
        }
      ],
      "name": "OwnershipTransferred",
      "type": "event"
    },
    {
      "anonymous": false,
      "inputs": [
        {
          "indexed": true,
          "internalType": "address",
          "name": "reporter",
          "type": "address"
        },
        {
          "indexed": true,
          "internalType": "address",
          "name": "reported",
          "type": "address"
        }
      ],
      "name": "Report",
      "type": "event"
    },
    {
      "anonymous": false,
      "inputs": [
        {
          "indexed": true,
          "internalType": "address",
          "name": "reporter",
          "type": "address"
        },
        {
          "indexed": true,
          "internalType": "address",
          "name": "reported",
          "type": "address"
        },
        {
          "indexed": false,
          "internalType": "string",
          "name": "action",
          "type": "string"
        }
      ],
      "name": "ReportProcessed",
      "type": "event"
    },
    {
      "anonymous": false,
      "inputs": [
        {
          "indexed": true,
          "internalType": "address",
          "name": "operator",
          "type": "address"
        },
        {
          "indexed": true,
          "internalType": "address",
          "name": "from",
          "type": "address"
        },
        {
          "indexed": true,
          "internalType": "address",
          "name": "to",
          "type": "address"
        },
        {
          "indexed": false,
          "internalType": "uint256[]",
          "name": "ids",
          "type": "uint256[]"
        },
        {
          "indexed": false,
          "internalType": "uint256[]",
          "name": "values",
          "type": "uint256[]"
        }
      ],
      "name": "TransferBatch",
      "type": "event"
    },
    {
      "anonymous": false,
      "inputs": [
        {
          "indexed": true,
          "internalType": "address",
          "name": "operator",
          "type": "address"
        },
        {
          "indexed": true,
          "internalType": "address",
          "name": "from",
          "type": "address"
        },
        {
          "indexed": true,
          "internalType": "address",
          "name": "to",
          "type": "address"
        },
        {
          "indexed": false,
          "internalType": "uint256",
          "name": "id",
          "type": "uint256"
        },
        {
          "indexed": false,
          "internalType": "uint256",
          "name": "value",
          "type": "uint256"
        }
      ],
      "name": "TransferSingle",
      "type": "event"
    },
    {
      "anonymous": false,
      "inputs": [
        {
          "indexed": false,
          "internalType": "string",
          "name": "value",
          "type": "string"
        },
        {
          "indexed": true,
          "internalType": "uint256",
          "name": "id",
          "type": "uint256"
        }
      ],
      "name": "URI",
      "type": "event"
    },
    {
      "inputs": [
        {
          "internalType": "address",
          "name": "account",
          "type": "address"
        },
        {
          "internalType": "uint256",
          "name": "id",
          "type": "uint256"
        }
      ],
      "name": "balanceOf",
      "outputs": [
        {
          "internalType": "uint256",
          "name": "",
          "type": "uint256"
        }
      ],
      "stateMutability": "view",
      "type": "function",
      "constant": true
    },
    {
      "inputs": [
        {
          "internalType": "address[]",
          "name": "accounts",
          "type": "address[]"
        },
        {
          "internalType": "uint256[]",
          "name": "ids",
          "type": "uint256[]"
        }
      ],
      "name": "balanceOfBatch",
      "outputs": [
        {
          "internalType": "uint256[]",
          "name": "",
          "type": "uint256[]"
        }
      ],
      "stateMutability": "view",
      "type": "function",
      "constant": true
    },
    {
      "inputs": [],
      "name": "erc20TokenAddress",
      "outputs": [
        {
          "internalType": "address",
          "name": "",
          "type": "address"
        }
      ],
      "stateMutability": "view",
      "type": "function",
      "constant": true
    },
    {
      "inputs": [],
      "name": "erc721TokenAddress",
      "outputs": [
        {
          "internalType": "address",
          "name": "",
          "type": "address"
        }
      ],
      "stateMutability": "view",
      "type": "function",
      "constant": true
    },
    {
      "inputs": [
        {
          "internalType": "address",
          "name": "account",
          "type": "address"
        },
        {
          "internalType": "address",
          "name": "operator",
          "type": "address"
        }
      ],
      "name": "isApprovedForAll",
      "outputs": [
        {
          "internalType": "bool",
          "name": "",
          "type": "bool"
        }
      ],
      "stateMutability": "view",
      "type": "function",
      "constant": true
    },
    {
      "inputs": [],
      "name": "owner",
      "outputs": [
        {
          "internalType": "address",
          "name": "",
          "type": "address"
        }
      ],
      "stateMutability": "view",
      "type": "function",
      "constant": true
    },
    {
      "inputs": [],
      "name": "renounceOwnership",
      "outputs": [],
      "stateMutability": "nonpayable",
      "type": "function"
    },
    {
      "inputs": [
        {
          "internalType": "address",
          "name": "",
          "type": "address"
        }
      ],
      "name": "reportedAddresses",
      "outputs": [
        {
          "internalType": "bool",
          "name": "",
          "type": "bool"
        }
      ],
      "stateMutability": "view",
      "type": "function",
      "constant": true
    },
    {
      "inputs": [
        {
          "internalType": "address",
          "name": "from",
          "type": "address"
        },
        {
          "internalType": "address",
          "name": "to",
          "type": "address"
        },
        {
          "internalType": "uint256[]",
          "name": "ids",
          "type": "uint256[]"
        },
        {
          "internalType": "uint256[]",
          "name": "amounts",
          "type": "uint256[]"
        },
        {
          "internalType": "bytes",
          "name": "data",
          "type": "bytes"
        }
      ],
      "name": "safeBatchTransferFrom",
      "outputs": [],
      "stateMutability": "nonpayable",
      "type": "function"
    },
    {
      "inputs": [
        {
          "internalType": "address",
          "name": "from",
          "type": "address"
        },
        {
          "internalType": "address",
          "name": "to",
          "type": "address"
        },
        {
          "internalType": "uint256",
          "name": "id",
          "type": "uint256"
        },
        {
          "internalType": "uint256",
          "name": "amount",
          "type": "uint256"
        },
        {
          "internalType": "bytes",
          "name": "data",
          "type": "bytes"
        }
      ],
      "name": "safeTransferFrom",
      "outputs": [],
      "stateMutability": "nonpayable",
      "type": "function"
    },
    {
      "inputs": [
        {
          "internalType": "address",
          "name": "operator",
          "type": "address"
        },
        {
          "internalType": "bool",
          "name": "approved",
          "type": "bool"
        }
      ],
      "name": "setApprovalForAll",
      "outputs": [],
      "stateMutability": "nonpayable",
      "type": "function"
    },
    {
      "inputs": [
        {
          "internalType": "bytes4",
          "name": "interfaceId",
          "type": "bytes4"
        }
      ],
      "name": "supportsInterface",
      "outputs": [
        {
          "internalType": "bool",
          "name": "",
          "type": "bool"
        }
      ],
      "stateMutability": "view",
      "type": "function",
      "constant": true
    },
    {
      "inputs": [
        {
          "internalType": "address",
          "name": "newOwner",
          "type": "address"
        }
      ],
      "name": "transferOwnership",
      "outputs": [],
      "stateMutability": "nonpayable",
      "type": "function"
    },
    {
      "inputs": [
        {
          "internalType": "uint256",
          "name": "",
          "type": "uint256"
        }
      ],
      "name": "uri",
      "outputs": [
        {
          "internalType": "string",
          "name": "",
          "type": "string"
        }
      ],
      "stateMutability": "view",
      "type": "function",
      "constant": true
    },
    {
      "inputs": [
        {
          "internalType": "address",
          "name": "reported",
          "type": "address"
        }
      ],
      "name": "report",
      "outputs": [],
      "stateMutability": "nonpayable",
      "type": "function"
    },
    {
      "inputs": [
        {
          "internalType": "address[]",
          "name": "to",
          "type": "address[]"
        },
        {
          "internalType": "uint256[]",
          "name": "pscIds",
          "type": "uint256[]"
        },
        {
          "internalType": "uint256[]",
          "name": "amounts",
          "type": "uint256[]"
        }
      ],
      "name": "batchTransferPSC",
      "outputs": [],
      "stateMutability": "nonpayable",
      "type": "function"
    },
    {
      "inputs": [
        {
          "internalType": "address",
          "name": "to",
          "type": "address"
        },
        {
          "internalType": "uint256",
          "name": "amount",
          "type": "uint256"
        }
      ],
      "name": "transferERC20",
      "outputs": [],
      "stateMutability": "nonpayable",
      "type": "function"
    },
    {
      "inputs": [
        {
          "internalType": "address",
          "name": "to",
          "type": "address"
        },
        {
          "internalType": "uint256",
          "name": "tokenId",
          "type": "uint256"
        }
      ],
      "name": "transferERC721",
      "outputs": [],
      "stateMutability": "nonpayable",
      "type": "function"
    }
  ],
  "bytecode": "0x60806040523480156200001157600080fd5b506040518060200160405280600081525062000033816200019560201b60201c565b50600062000046620001b160201b60201c565b905080600360006101000a81548173ffffffffffffffffffffffffffffffffffffffff021916908373ffffffffffffffffffffffffffffffffffffffff1602179055508073ffffffffffffffffffffffffffffffffffffffff16600073ffffffffffffffffffffffffffffffffffffffff167f8be0079c531659141344cd1fd0a4f28419497f9722a3daafe3b4186f6b6457e060405160405180910390a3507383f82b53ab79829205c692ab26d669333970e456600460006101000a81548173ffffffffffffffffffffffffffffffffffffffff021916908373ffffffffffffffffffffffffffffffffffffffff160217905550733134a9d6e7b8cf4b0aed9c62778f86ef041ff3c3600560006101000a81548173ffffffffffffffffffffffffffffffffffffffff021916908373ffffffffffffffffffffffffffffffffffffffff160217905550620002cd565b8060029080519060200190620001ad929190620001b9565b5050565b600033905090565b828054620001c79062000298565b90600052602060002090601f016020900481019282620001eb576000855562000237565b82601f106200020657805160ff191683800117855562000237565b8280016001018555821562000237579182015b828111156200023657825182559160200191906001019062000219565b5b5090506200024691906200024a565b5090565b5b80821115620002655760008160009055506001016200024b565b5090565b7f4e487b7100000000000000000000000000000000000000000000000000000000600052602260045260246000fd5b60006002820490506001821680620002b157607f821691505b602082108103620002c757620002c662000269565b5b50919050565b613d3680620002dd6000396000f3fe608060405234801561001057600080fd5b50600436106101155760003560e01c8063a22cb465116100a2578063e985e9c511610071578063e985e9c5146102dc578063f242432a1461030c578063f2fde38b14610328578063f7448a3114610344578063f835cd3c1461036057610115565b8063a22cb46514610256578063a72eb3a914610272578063df241cb9146102a2578063e053ea31146102c057610115565b8063412605d7116100e9578063412605d7146101c657806344b7f69b146101e25780634e1273f4146101fe578063715018a61461022e5780638da5cb5b1461023857610115565b8062fdd58e1461011a57806301ffc9a71461014a5780630e89341c1461017a5780632eb2c2d6146101aa575b600080fd5b610134600480360381019061012f9190612271565b61037e565b60405161014191906122c0565b60405180910390f35b610164600480360381019061015f9190612333565b610446565b604051610171919061237b565b60405180910390f35b610194600480360381019061018f9190612396565b610528565b6040516101a1919061245c565b60405180910390f35b6101c460048036038101906101bf919061267b565b6105bc565b005b6101e060048036038101906101db919061280d565b610965565b005b6101fc60048036038101906101f79190612271565b610b2e565b005b610218600480360381019061021391906128b4565b610c45565b60405161022591906129ea565b60405180910390f35b610236610d5e565b005b610240610e9b565b60405161024d9190612a1b565b60405180910390f35b610270600480360381019061026b9190612a62565b610ec5565b005b61028c60048036038101906102879190612aa2565b611045565b604051610299919061237b565b60405180910390f35b6102aa611065565b6040516102b79190612a1b565b60405180910390f35b6102da60048036038101906102d59190612aa2565b61108b565b005b6102f660048036038101906102f19190612acf565b6114dc565b604051610303919061237b565b60405180910390f35b61032660048036038101906103219190612b0f565b611570565b005b610342600480360381019061033d9190612aa2565b611887565b005b61035e60048036038101906103599190612271565b611a32565b005b610368611b59565b6040516103759190612a1b565b60405180910390f35b60008073ffffffffffffffffffffffffffffffffffffffff168373ffffffffffffffffffffffffffffffffffffffff16036103ee576040517f08c379a00000000000000000000000000000000000000000000000000000000081526004016103e590612c18565b60405180910390fd5b60008083815260200190815260200160002060008473ffffffffffffffffffffffffffffffffffffffff1673ffffffffffffffffffffffffffffffffffffffff16815260200190815260200160002054905092915050565b60007fd9b67a26000000000000000000000000000000000000000000000000000000007bffffffffffffffffffffffffffffffffffffffffffffffffffffffff1916827bffffffffffffffffffffffffffffffffffffffffffffffffffffffff1916148061051157507f0e89341c000000000000000000000000000000000000000000000000000000007bffffffffffffffffffffffffffffffffffffffffffffffffffffffff1916827bffffffffffffffffffffffffffffffffffffffffffffffffffffffff1916145b80610521575061052082611b7f565b5b9050919050565b60606002805461053790612c67565b80601f016020809104026020016040519081016040528092919081815260200182805461056390612c67565b80156105b05780601f10610585576101008083540402835291602001916105b0565b820191906000526020600020905b81548152906001019060200180831161059357829003601f168201915b50505050509050919050565b8151835114610600576040517f08c379a00000000000000000000000000000000000000000000000000000000081526004016105f790612d0a565b60405180910390fd5b600073ffffffffffffffffffffffffffffffffffffffff168473ffffffffffffffffffffffffffffffffffffffff160361066f576040517f08c379a000000000000000000000000000000000000000000000000000000000815260040161066690612d9c565b60405180910390fd5b610677611be9565b73ffffffffffffffffffffffffffffffffffffffff168573ffffffffffffffffffffffffffffffffffffffff1614806106bd57506106bc856106b7611be9565b6114dc565b5b6106fc576040517f08c379a00000000000000000000000000000000000000000000000000000000081526004016106f390612e2e565b60405180910390fd5b6000610706611be9565b9050610716818787878787611bf1565b60005b84518110156108d057600085828151811061073757610736612e4e565b5b60200260200101519050600085838151811061075657610755612e4e565b5b60200260200101519050600080600084815260200190815260200160002060008b73ffffffffffffffffffffffffffffffffffffffff1673ffffffffffffffffffffffffffffffffffffffff168152602001908152602001600020549050818110156107f7576040517f08c379a00000000000000000000000000000000000000000000000000000000081526004016107ee90612eef565b60405180910390fd5b81816108039190612f3e565b60008085815260200190815260200160002060008c73ffffffffffffffffffffffffffffffffffffffff1673ffffffffffffffffffffffffffffffffffffffff168152602001908152602001600020819055508160008085815260200190815260200160002060008b73ffffffffffffffffffffffffffffffffffffffff1673ffffffffffffffffffffffffffffffffffffffff16815260200190815260200160002060008282546108b59190612f72565b92505081905550505050806108c990612fc8565b9050610719565b508473ffffffffffffffffffffffffffffffffffffffff168673ffffffffffffffffffffffffffffffffffffffff168273ffffffffffffffffffffffffffffffffffffffff167f4a39dc06d4c0dbc64b70af90fd698a233a518aa5d07e595d983b8c0526c8f7fb8787604051610947929190613010565b60405180910390a461095d818787878787611bf9565b505050505050565b61096d611be9565b73ffffffffffffffffffffffffffffffffffffffff1661098b610e9b565b73ffffffffffffffffffffffffffffffffffffffff16146109e1576040517f08c379a00000000000000000000000000000000000000000000000000000000081526004016109d890613093565b60405180910390fd5b815183511480156109f3575080518251145b610a32576040517f08c379a0000000000000000000000000000000000000000000000000000000008152600401610a29906130ff565b60405180910390fd5b60005b8351811015610aba57610aa7848281518110610a5457610a53612e4e565b5b6020026020010151848381518110610a6f57610a6e612e4e565b5b6020026020010151848481518110610a8a57610a89612e4e565b5b602002602001015160405180602001604052806000815250611dd0565b8080610ab290612fc8565b915050610a35565b5080604051610ac991906131af565b604051809103902082604051610adf91906131af565b604051809103902084604051610af5919061327e565b60405180910390207fdbb5072be0b77bfc4870d917742d57af50d175625ce6da7f2b3e722be60bf07f60405160405180910390a4505050565b610b36611be9565b73ffffffffffffffffffffffffffffffffffffffff16610b54610e9b565b73ffffffffffffffffffffffffffffffffffffffff1614610baa576040517f08c379a0000000000000000000000000000000000000000000000000000000008152600401610ba190613093565b60405180910390fd5b6000600560009054906101000a900473ffffffffffffffffffffffffffffffffffffffff1690508073ffffffffffffffffffffffffffffffffffffffff166342842e0e3085856040518463ffffffff1660e01b8152600401610c0e93929190613295565b600060405180830381600087803b158015610c2857600080fd5b505af1158015610c3c573d6000803e3d6000fd5b50505050505050565b60608151835114610c8b576040517f08c379a0000000000000000000000000000000000000000000000000000000008152600401610c829061333e565b60405180910390fd5b6000835167ffffffffffffffff811115610ca857610ca7612483565b5b604051908082528060200260200182016040528015610cd65781602001602082028036833780820191505090505b50905060005b8451811015610d5357610d23858281518110610cfb57610cfa612e4e565b5b6020026020010151858381518110610d1657610d15612e4e565b5b602002602001015161037e565b828281518110610d3657610d35612e4e565b5b60200260200101818152505080610d4c90612fc8565b9050610cdc565b508091505092915050565b610d66611be9565b73ffffffffffffffffffffffffffffffffffffffff16610d84610e9b565b73ffffffffffffffffffffffffffffffffffffffff1614610dda576040517f08c379a0000000000000000000000000000000000000000000000000000000008152600401610dd190613093565b60405180910390fd5b600073ffffffffffffffffffffffffffffffffffffffff16600360009054906101000a900473ffffffffffffffffffffffffffffffffffffffff1673ffffffffffffffffffffffffffffffffffffffff167f8be0079c531659141344cd1fd0a4f28419497f9722a3daafe3b4186f6b6457e060405160405180910390a36000600360006101000a81548173ffffffffffffffffffffffffffffffffffffffff021916908373ffffffffffffffffffffffffffffffffffffffff160217905550565b6000600360009054906101000a900473ffffffffffffffffffffffffffffffffffffffff16905090565b8173ffffffffffffffffffffffffffffffffffffffff16610ee4611be9565b73ffffffffffffffffffffffffffffffffffffffff1603610f3a576040517f08c379a0000000000000000000000000000000000000000000000000000000008152600401610f31906133d0565b60405180910390fd5b8060016000610f47611be9565b73ffffffffffffffffffffffffffffffffffffffff1673ffffffffffffffffffffffffffffffffffffffff16815260200190815260200160002060008473ffffffffffffffffffffffffffffffffffffffff1673ffffffffffffffffffffffffffffffffffffffff16815260200190815260200160002060006101000a81548160ff0219169083151502179055508173ffffffffffffffffffffffffffffffffffffffff16610ff4611be9565b73ffffffffffffffffffffffffffffffffffffffff167f17307eab39ab6107e8899845ad3d59bd9653f200f220920489ca2b5937696c3183604051611039919061237b565b60405180910390a35050565b60066020528060005260406000206000915054906101000a900460ff1681565b600560009054906101000a900473ffffffffffffffffffffffffffffffffffffffff1681565b600073ffffffffffffffffffffffffffffffffffffffff168173ffffffffffffffffffffffffffffffffffffffff16036110fa576040517f08c379a00000000000000000000000000000000000000000000000000000000081526004016110f19061343c565b60405180910390fd5b8073ffffffffffffffffffffffffffffffffffffffff163373ffffffffffffffffffffffffffffffffffffffff1603611168576040517f08c379a000000000000000000000000000000000000000000000000000000000815260040161115f906134a8565b60405180910390fd5b600660008273ffffffffffffffffffffffffffffffffffffffff1673ffffffffffffffffffffffffffffffffffffffff16815260200190815260200160002060009054906101000a900460ff16611475576001600660008373ffffffffffffffffffffffffffffffffffffffff1673ffffffffffffffffffffffffffffffffffffffff16815260200190815260200160002060006101000a81548160ff0219169083151502179055508073ffffffffffffffffffffffffffffffffffffffff163373ffffffffffffffffffffffffffffffffffffffff167f1febf7f9807e77df2acca26c712e978165a7695be69936d40e1ba0f4a8b0ea1f60405160405180910390a36000600460009054906101000a900473ffffffffffffffffffffffffffffffffffffffff16905060008173ffffffffffffffffffffffffffffffffffffffff166370a08231846040518263ffffffff1660e01b81526004016112cd9190612a1b565b602060405180830381865afa1580156112ea573d6000803e3d6000fd5b505050506040513d601f19601f8201168201806040525081019061130e91906134dd565b905060006064600183611321919061350a565b61132b9190613593565b90506000811115611409578273ffffffffffffffffffffffffffffffffffffffff16630f828569826040518263ffffffff1660e01b815260040161136f91906122c0565b600060405180830381600087803b15801561138957600080fd5b505af115801561139d573d6000803e3d6000fd5b505050508373ffffffffffffffffffffffffffffffffffffffff163373ffffffffffffffffffffffffffffffffffffffff167fce68293af14de39c0ba4eca936f7e85153dbec15b1691f0123860d762def92586040516113fc90613636565b60405180910390a361146d565b8373ffffffffffffffffffffffffffffffffffffffff163373ffffffffffffffffffffffffffffffffffffffff167fce68293af14de39c0ba4eca936f7e85153dbec15b1691f0123860d762def9258604051611464906136ee565b60405180910390a35b5050506114d9565b8073ffffffffffffffffffffffffffffffffffffffff163373ffffffffffffffffffffffffffffffffffffffff167fce68293af14de39c0ba4eca936f7e85153dbec15b1691f0123860d762def92586040516114d09061375a565b60405180910390a35b50565b6000600160008473ffffffffffffffffffffffffffffffffffffffff1673ffffffffffffffffffffffffffffffffffffffff16815260200190815260200160002060008373ffffffffffffffffffffffffffffffffffffffff1673ffffffffffffffffffffffffffffffffffffffff16815260200190815260200160002060009054906101000a900460ff16905092915050565b600073ffffffffffffffffffffffffffffffffffffffff168473ffffffffffffffffffffffffffffffffffffffff16036115df576040517f08c379a00000000000000000000000000000000000000000000000000000000081526004016115d690612d9c565b60405180910390fd5b6115e7611be9565b73ffffffffffffffffffffffffffffffffffffffff168573ffffffffffffffffffffffffffffffffffffffff16148061162d575061162c85611627611be9565b6114dc565b5b61166c576040517f08c379a0000000000000000000000000000000000000000000000000000000008152600401611663906137ec565b60405180910390fd5b6000611676611be9565b905061169681878761168788611f65565b61169088611f65565b87611bf1565b600080600086815260200190815260200160002060008873ffffffffffffffffffffffffffffffffffffffff1673ffffffffffffffffffffffffffffffffffffffff1681526020019081526020016000205490508381101561172d576040517f08c379a000000000000000000000000000000000000000000000000000000000815260040161172490612eef565b60405180910390fd5b83816117399190612f3e565b60008087815260200190815260200160002060008973ffffffffffffffffffffffffffffffffffffffff1673ffffffffffffffffffffffffffffffffffffffff168152602001908152602001600020819055508360008087815260200190815260200160002060008873ffffffffffffffffffffffffffffffffffffffff1673ffffffffffffffffffffffffffffffffffffffff16815260200190815260200160002060008282546117eb9190612f72565b925050819055508573ffffffffffffffffffffffffffffffffffffffff168773ffffffffffffffffffffffffffffffffffffffff168373ffffffffffffffffffffffffffffffffffffffff167fc3d58168c5ae7397731d063d5bbf3d657854427343f4c083240f7aacaa2d0f62888860405161186892919061380c565b60405180910390a461187e828888888888611fdf565b50505050505050565b61188f611be9565b73ffffffffffffffffffffffffffffffffffffffff166118ad610e9b565b73ffffffffffffffffffffffffffffffffffffffff1614611903576040517f08c379a00000000000000000000000000000000000000000000000000000000081526004016118fa90613093565b60405180910390fd5b600073ffffffffffffffffffffffffffffffffffffffff168173ffffffffffffffffffffffffffffffffffffffff1603611972576040517f08c379a0000000000000000000000000000000000000000000000000000000008152600401611969906138a7565b60405180910390fd5b8073ffffffffffffffffffffffffffffffffffffffff16600360009054906101000a900473ffffffffffffffffffffffffffffffffffffffff1673ffffffffffffffffffffffffffffffffffffffff167f8be0079c531659141344cd1fd0a4f28419497f9722a3daafe3b4186f6b6457e060405160405180910390a380600360006101000a81548173ffffffffffffffffffffffffffffffffffffffff021916908373ffffffffffffffffffffffffffffffffffffffff16021790555050565b611a3a611be9565b73ffffffffffffffffffffffffffffffffffffffff16611a58610e9b565b73ffffffffffffffffffffffffffffffffffffffff1614611aae576040517f08c379a0000000000000000000000000000000000000000000000000000000008152600401611aa590613093565b60405180910390fd5b6000600460009054906101000a900473ffffffffffffffffffffffffffffffffffffffff1690508073ffffffffffffffffffffffffffffffffffffffff1663a9059cbb84846040518363ffffffff1660e01b8152600401611b109291906138c7565b6020604051808303816000875af1158015611b2f573d6000803e3d6000fd5b505050506040513d601f19601f82011682018060405250810190611b539190613905565b50505050565b600460009054906101000a900473ffffffffffffffffffffffffffffffffffffffff1681565b60007f01ffc9a7000000000000000000000000000000000000000000000000000000007bffffffffffffffffffffffffffffffffffffffffffffffffffffffff1916827bffffffffffffffffffffffffffffffffffffffffffffffffffffffff1916149050919050565b600033905090565b505050505050565b611c188473ffffffffffffffffffffffffffffffffffffffff166121b6565b15611dc8578373ffffffffffffffffffffffffffffffffffffffff1663bc197c8187878686866040518663ffffffff1660e01b8152600401611c5e959493929190613987565b6020604051808303816000875af1925050508015611c9a57506040513d601f19601f82011682018060405250810190611c979190613a04565b60015b611d3f57611ca6613a3e565b806308c379a003611d025750611cba613a60565b80611cc55750611d04565b806040517f08c379a0000000000000000000000000000000000000000000000000000000008152600401611cf9919061245c565b60405180910390fd5b505b6040517f08c379a0000000000000000000000000000000000000000000000000000000008152600401611d3690613b62565b60405180910390fd5b63bc197c8160e01b7bffffffffffffffffffffffffffffffffffffffffffffffffffffffff1916817bffffffffffffffffffffffffffffffffffffffffffffffffffffffff191614611dc6576040517f08c379a0000000000000000000000000000000000000000000000000000000008152600401611dbd90613bf4565b60405180910390fd5b505b505050505050565b600073ffffffffffffffffffffffffffffffffffffffff168473ffffffffffffffffffffffffffffffffffffffff1603611e3f576040517f08c379a0000000000000000000000000000000000000000000000000000000008152600401611e3690613c86565b60405180910390fd5b6000611e49611be9565b9050611e6a81600087611e5b88611f65565b611e6488611f65565b87611bf1565b8260008086815260200190815260200160002060008773ffffffffffffffffffffffffffffffffffffffff1673ffffffffffffffffffffffffffffffffffffffff1681526020019081526020016000206000828254611ec99190612f72565b925050819055508473ffffffffffffffffffffffffffffffffffffffff16600073ffffffffffffffffffffffffffffffffffffffff168273ffffffffffffffffffffffffffffffffffffffff167fc3d58168c5ae7397731d063d5bbf3d657854427343f4c083240f7aacaa2d0f628787604051611f4792919061380c565b60405180910390a4611f5e81600087878787611fdf565b5050505050565b60606000600167ffffffffffffffff811115611f8457611f83612483565b5b604051908082528060200260200182016040528015611fb25781602001602082028036833780820191505090505b5090508281600081518110611fca57611fc9612e4e565b5b60200260200101818152505080915050919050565b611ffe8473ffffffffffffffffffffffffffffffffffffffff166121b6565b156121ae578373ffffffffffffffffffffffffffffffffffffffff1663f23a6e6187878686866040518663ffffffff1660e01b8152600401612044959493929190613ca6565b6020604051808303816000875af192505050801561208057506040513d601f19601f8201168201806040525081019061207d9190613a04565b60015b6121255761208c613a3e565b806308c379a0036120e857506120a0613a60565b806120ab57506120ea565b806040517f08c379a00000000000000000000000000000000000000000000000000000000081526004016120df919061245c565b60405180910390fd5b505b6040517f08c379a000000000000000000000000000000000000000000000000000000000815260040161211c90613b62565b60405180910390fd5b63f23a6e6160e01b7bffffffffffffffffffffffffffffffffffffffffffffffffffffffff1916817bffffffffffffffffffffffffffffffffffffffffffffffffffffffff1916146121ac576040517f08c379a00000000000000000000000000000000000000000000000000000000081526004016121a390613bf4565b60405180910390fd5b505b505050505050565b600080823b905060008111915050919050565b6000604051905090565b600080fd5b600080fd5b600073ffffffffffffffffffffffffffffffffffffffff82169050919050565b6000612208826121dd565b9050919050565b612218816121fd565b811461222357600080fd5b50565b6000813590506122358161220f565b92915050565b6000819050919050565b61224e8161223b565b811461225957600080fd5b50565b60008135905061226b81612245565b92915050565b60008060408385031215612288576122876121d3565b5b600061229685828601612226565b92505060206122a78582860161225c565b9150509250929050565b6122ba8161223b565b82525050565b60006020820190506122d560008301846122b1565b92915050565b60007fffffffff0000000000000000000000000000000000000000000000000000000082169050919050565b612310816122db565b811461231b57600080fd5b50565b60008135905061232d81612307565b92915050565b600060208284031215612349576123486121d3565b5b60006123578482850161231e565b91505092915050565b60008115159050919050565b61237581612360565b82525050565b6000602082019050612390600083018461236c565b92915050565b6000602082840312156123ac576123ab6121d3565b5b60006123ba8482850161225c565b91505092915050565b600081519050919050565b600082825260208201905092915050565b60005b838110156123fd5780820151818401526020810190506123e2565b8381111561240c576000848401525b50505050565b6000601f19601f8301169050919050565b600061242e826123c3565b61243881856123ce565b93506124488185602086016123df565b61245181612412565b840191505092915050565b600060208201905081810360008301526124768184612423565b905092915050565b600080fd5b7f4e487b7100000000000000000000000000000000000000000000000000000000600052604160045260246000fd5b6124bb82612412565b810181811067ffffffffffffffff821117156124da576124d9612483565b5b80604052505050565b60006124ed6121c9565b90506124f982826124b2565b919050565b600067ffffffffffffffff82111561251957612518612483565b5b602082029050602081019050919050565b600080fd5b600061254261253d846124fe565b6124e3565b905080838252602082019050602084028301858111156125655761256461252a565b5b835b8181101561258e578061257a888261225c565b845260208401935050602081019050612567565b5050509392505050565b600082601f8301126125ad576125ac61247e565b5b81356125bd84826020860161252f565b91505092915050565b600080fd5b600067ffffffffffffffff8211156125e6576125e5612483565b5b6125ef82612412565b9050602081019050919050565b82818337600083830152505050565b600061261e612619846125cb565b6124e3565b90508281526020810184848401111561263a576126396125c6565b5b6126458482856125fc565b509392505050565b600082601f8301126126625761266161247e565b5b813561267284826020860161260b565b91505092915050565b600080600080600060a08688031215612697576126966121d3565b5b60006126a588828901612226565b95505060206126b688828901612226565b945050604086013567ffffffffffffffff8111156126d7576126d66121d8565b5b6126e388828901612598565b935050606086013567ffffffffffffffff811115612704576127036121d8565b5b61271088828901612598565b925050608086013567ffffffffffffffff811115612731576127306121d8565b5b61273d8882890161264d565b9150509295509295909350565b600067ffffffffffffffff82111561276557612764612483565b5b602082029050602081019050919050565b60006127896127848461274a565b6124e3565b905080838252602082019050602084028301858111156127ac576127ab61252a565b5b835b818110156127d557806127c18882612226565b8452602084019350506020810190506127ae565b5050509392505050565b600082601f8301126127f4576127f361247e565b5b8135612804848260208601612776565b91505092915050565b600080600060608486031215612826576128256121d3565b5b600084013567ffffffffffffffff811115612844576128436121d8565b5b612850868287016127df565b935050602084013567ffffffffffffffff811115612871576128706121d8565b5b61287d86828701612598565b925050604084013567ffffffffffffffff81111561289e5761289d6121d8565b5b6128aa86828701612598565b9150509250925092565b600080604083850312156128cb576128ca6121d3565b5b600083013567ffffffffffffffff8111156128e9576128e86121d8565b5b6128f5858286016127df565b925050602083013567ffffffffffffffff811115612916576129156121d8565b5b61292285828601612598565b9150509250929050565b600081519050919050565b600082825260208201905092915050565b6000819050602082019050919050565b6129618161223b565b82525050565b60006129738383612958565b60208301905092915050565b6000602082019050919050565b60006129978261292c565b6129a18185612937565b93506129ac83612948565b8060005b838110156129dd5781516129c48882612967565b97506129cf8361297f565b9250506001810190506129b0565b5085935050505092915050565b60006020820190508181036000830152612a04818461298c565b905092915050565b612a15816121fd565b82525050565b6000602082019050612a306000830184612a0c565b92915050565b612a3f81612360565b8114612a4a57600080fd5b50565b600081359050612a5c81612a36565b92915050565b60008060408385031215612a7957612a786121d3565b5b6000612a8785828601612226565b9250506020612a9885828601612a4d565b9150509250929050565b600060208284031215612ab857612ab76121d3565b5b6000612ac684828501612226565b91505092915050565b60008060408385031215612ae657612ae56121d3565b5b6000612af485828601612226565b9250506020612b0585828601612226565b9150509250929050565b600080600080600060a08688031215612b2b57612b2a6121d3565b5b6000612b3988828901612226565b9550506020612b4a88828901612226565b9450506040612b5b8882890161225c565b9350506060612b6c8882890161225c565b925050608086013567ffffffffffffffff811115612b8d57612b8c6121d8565b5b612b998882890161264d565b9150509295509295909350565b7f455243313135353a2062616c616e636520717565727920666f7220746865207a60008201527f65726f2061646472657373000000000000000000000000000000000000000000602082015250565b6000612c02602b836123ce565b9150612c0d82612ba6565b604082019050919050565b60006020820190508181036000830152612c3181612bf5565b9050919050565b7f4e487b7100000000000000000000000000000000000000000000000000000000600052602260045260246000fd5b60006002820490506001821680612c7f57607f821691505b602082108103612c9257612c91612c38565b5b50919050565b7f455243313135353a2069647320616e6420616d6f756e7473206c656e6774682060008201527f6d69736d61746368000000000000000000000000000000000000000000000000602082015250565b6000612cf46028836123ce565b9150612cff82612c98565b604082019050919050565b60006020820190508181036000830152612d2381612ce7565b9050919050565b7f455243313135353a207472616e7366657220746f20746865207a65726f20616460008201527f6472657373000000000000000000000000000000000000000000000000000000602082015250565b6000612d866025836123ce565b9150612d9182612d2a565b604082019050919050565b60006020820190508181036000830152612db581612d79565b9050919050565b7f455243313135353a207472616e736665722063616c6c6572206973206e6f742060008201527f6f776e6572206e6f7220617070726f7665640000000000000000000000000000602082015250565b6000612e186032836123ce565b9150612e2382612dbc565b604082019050919050565b60006020820190508181036000830152612e4781612e0b565b9050919050565b7f4e487b7100000000000000000000000000000000000000000000000000000000600052603260045260246000fd5b7f455243313135353a20696e73756666696369656e742062616c616e636520666f60008201527f72207472616e7366657200000000000000000000000000000000000000000000602082015250565b6000612ed9602a836123ce565b9150612ee482612e7d565b604082019050919050565b60006020820190508181036000830152612f0881612ecc565b9050919050565b7f4e487b7100000000000000000000000000000000000000000000000000000000600052601160045260246000fd5b6000612f498261223b565b9150612f548361223b565b925082821015612f6757612f66612f0f565b5b828203905092915050565b6000612f7d8261223b565b9150612f888361223b565b9250827fffffffffffffffffffffffffffffffffffffffffffffffffffffffffffffffff03821115612fbd57612fbc612f0f565b5b828201905092915050565b6000612fd38261223b565b91507fffffffffffffffffffffffffffffffffffffffffffffffffffffffffffffffff820361300557613004612f0f565b5b600182019050919050565b6000604082019050818103600083015261302a818561298c565b9050818103602083015261303e818461298c565b90509392505050565b7f4f776e61626c653a2063616c6c6572206973206e6f7420746865206f776e6572600082015250565b600061307d6020836123ce565b915061308882613047565b602082019050919050565b600060208201905081810360008301526130ac81613070565b9050919050565b7f417272617973206c656e677468206d69736d6174636800000000000000000000600082015250565b60006130e96016836123ce565b91506130f4826130b3565b602082019050919050565b60006020820190508181036000830152613118816130dc565b9050919050565b600081905092915050565b6131338161223b565b82525050565b6000613145838361312a565b60208301905092915050565b600061315c8261292c565b613166818561311f565b935061317183612948565b8060005b838110156131a25781516131898882613139565b97506131948361297f565b925050600181019050613175565b5085935050505092915050565b60006131bb8284613151565b915081905092915050565b600081519050919050565b600081905092915050565b6000819050602082019050919050565b6131f5816121fd565b82525050565b600061320783836131ec565b60208301905092915050565b6000602082019050919050565b600061322b826131c6565b61323581856131d1565b9350613240836131dc565b8060005b8381101561327157815161325888826131fb565b975061326383613213565b925050600181019050613244565b5085935050505092915050565b600061328a8284613220565b915081905092915050565b60006060820190506132aa6000830186612a0c565b6132b76020830185612a0c565b6132c460408301846122b1565b949350505050565b7f455243313135353a206163636f756e747320616e6420696473206c656e67746860008201527f206d69736d617463680000000000000000000000000000000000000000000000602082015250565b60006133286029836123ce565b9150613333826132cc565b604082019050919050565b600060208201905081810360008301526133578161331b565b9050919050565b7f455243313135353a2073657474696e6720617070726f76616c2073746174757360008201527f20666f722073656c660000000000000000000000000000000000000000000000602082015250565b60006133ba6029836123ce565b91506133c58261335e565b604082019050919050565b600060208201905081810360008301526133e9816133ad565b9050919050565b7f496e76616c69642061646472657373207265706f727465640000000000000000600082015250565b60006134266018836123ce565b9150613431826133f0565b602082019050919050565b6000602082019050818103600083015261345581613419565b9050919050565b7f43616e6e6f74207265706f727420796f757273656c6600000000000000000000600082015250565b60006134926016836123ce565b915061349d8261345c565b602082019050919050565b600060208201905081810360008301526134c181613485565b9050919050565b6000815190506134d781612245565b92915050565b6000602082840312156134f3576134f26121d3565b5b6000613501848285016134c8565b91505092915050565b60006135158261223b565b91506135208361223b565b9250817fffffffffffffffffffffffffffffffffffffffffffffffffffffffffffffffff048311821515161561355957613558612f0f565b5b828202905092915050565b7f4e487b7100000000000000000000000000000000000000000000000000000000600052601260045260246000fd5b600061359e8261223b565b91506135a98361223b565b9250826135b9576135b8613564565b5b828204905092915050565b7f5265706f7274207375626d6974746564207375636365737366756c6c792e205060008201527f656e616c7479206170706c6965642e0000000000000000000000000000000000602082015250565b6000613620602f836123ce565b915061362b826135c4565b604082019050919050565b6000602082019050818103600083015261364f81613613565b9050919050565b7f5265706f7274207375626d6974746564207375636365737366756c6c792c206260008201527f7574206e6f2070656e616c7479206170706c6965642028696e7375666669636960208201527f656e742062616c616e6365292e00000000000000000000000000000000000000604082015250565b60006136d8604d836123ce565b91506136e382613656565b606082019050919050565b60006020820190508181036000830152613707816136cb565b9050919050565b7f416c7265616479207265706f7274656400000000000000000000000000000000600082015250565b60006137446010836123ce565b915061374f8261370e565b602082019050919050565b6000602082019050818103600083015261377381613737565b9050919050565b7f455243313135353a2063616c6c6572206973206e6f74206f776e6572206e6f7260008201527f20617070726f7665640000000000000000000000000000000000000000000000602082015250565b60006137d66029836123ce565b91506137e18261377a565b604082019050919050565b60006020820190508181036000830152613805816137c9565b9050919050565b600060408201905061382160008301856122b1565b61382e60208301846122b1565b9392505050565b7f4f776e61626c653a206e6577206f776e657220697320746865207a65726f206160008201527f6464726573730000000000000000000000000000000000000000000000000000602082015250565b60006138916026836123ce565b915061389c82613835565b604082019050919050565b600060208201905081810360008301526138c081613884565b9050919050565b60006040820190506138dc6000830185612a0c565b6138e960208301846122b1565b9392505050565b6000815190506138ff81612a36565b92915050565b60006020828403121561391b5761391a6121d3565b5b6000613929848285016138f0565b91505092915050565b600081519050919050565b600082825260208201905092915050565b600061395982613932565b613963818561393d565b93506139738185602086016123df565b61397c81612412565b840191505092915050565b600060a08201905061399c6000830188612a0c565b6139a96020830187612a0c565b81810360408301526139bb818661298c565b905081810360608301526139cf818561298c565b905081810360808301526139e3818461394e565b90509695505050505050565b6000815190506139fe81612307565b92915050565b600060208284031215613a1a57613a196121d3565b5b6000613a28848285016139ef565b91505092915050565b60008160e01c9050919050565b600060033d1115613a5d5760046000803e613a5a600051613a31565b90505b90565b600060443d10613aed57613a726121c9565b60043d036004823e80513d602482011167ffffffffffffffff82111715613a9a575050613aed565b808201805167ffffffffffffffff811115613ab85750505050613aed565b80602083010160043d038501811115613ad5575050505050613aed565b613ae4826020018501866124b2565b82955050505050505b90565b7f455243313135353a207472616e7366657220746f206e6f6e204552433131353560008201527f526563656976657220696d706c656d656e746572000000000000000000000000602082015250565b6000613b4c6034836123ce565b9150613b5782613af0565b604082019050919050565b60006020820190508181036000830152613b7b81613b3f565b9050919050565b7f455243313135353a204552433131353552656365697665722072656a6563746560008201527f6420746f6b656e73000000000000000000000000000000000000000000000000602082015250565b6000613bde6028836123ce565b9150613be982613b82565b604082019050919050565b60006020820190508181036000830152613c0d81613bd1565b9050919050565b7f455243313135353a206d696e7420746f20746865207a65726f2061646472657360008201527f7300000000000000000000000000000000000000000000000000000000000000602082015250565b6000613c706021836123ce565b9150613c7b82613c14565b604082019050919050565b60006020820190508181036000830152613c9f81613c63565b9050919050565b600060a082019050613cbb6000830188612a0c565b613cc86020830187612a0c565b613cd560408301866122b1565b613ce260608301856122b1565b8181036080830152613cf4818461394e565b9050969550505050505056fea26469706673582212208e8d564d3e20eedfeaa3cd65c1256444c1ed58e805d4f2b1faaf434877aeffc264736f6c634300080d0033",
  "immutableReferences": {},
  "source": "// SPDX-License-Identifier: MIT\r\npragma solidity >=0.4.22 <0.9.0;\r\n\r\nimport \"@openzeppelin/contracts/token/ERC1155/ERC1155.sol\";\r\nimport \"@openzeppelin/contracts/access/Ownable.sol\";\r\nimport \"./fst_erc_20.sol\";\r\nimport \"./fst_erc_721.sol\";\r\n\r\ncontract fst_erc_1155 is ERC1155, Ownable {\r\n    address public erc20TokenAddress;\r\n    address public erc721TokenAddress;\r\n\r\n    // Event for minting ERC-1155 tokens\r\n    event Minted(address indexed account, uint256 id, uint256 amount);\r\n\r\n    // Event for reporting someone\r\n    event Report(address indexed reporter, address indexed reported);\r\n    event ReportProcessed(address indexed reporter, address indexed reported, string action);\r\n    event BatchTransferPSC(address[] indexed to, uint256[] indexed pscIds, uint256[] indexed amounts);\r\n\r\n    // List of reported addresses\r\n    mapping(address => bool) public reportedAddresses;\r\n\r\n    constructor() ERC1155(\"\") Ownable() {\r\n        erc20TokenAddress = 0x83f82B53ab79829205c692aB26D669333970e456;\r\n        erc721TokenAddress = 0x3134a9d6E7b8Cf4b0AEd9c62778F86eF041Ff3C3;\r\n    }\r\n\r\n    // Function to report someone\r\n    function report(address reported) external {\r\n        require(reported != address(0), \"Invalid address reported\");\r\n        require(msg.sender != reported, \"Cannot report yourself\");\r\n\r\n        if (!reportedAddresses[reported]) {\r\n            reportedAddresses[reported] = true;\r\n            emit Report(msg.sender, reported);\r\n\r\n            // Penalize the reported address by transferring 0.1% of their total FSP balance to the pool\r\n            fst_erc_20 erc20Token = fst_erc_20(erc20TokenAddress);\r\n            uint256 totalBalance = erc20Token.balanceOf(reported);\r\n            uint256 penaltyAmount = (totalBalance * 1) / 100; // 1% of total balance\r\n            if (penaltyAmount > 0) {\r\n                erc20Token.TransferFSPsToPool(penaltyAmount);\r\n\r\n                // You can implement additional actions based on your application's rules\r\n                // For example, you can trigger further actions or emit additional events.\r\n                // In this example, we're emitting an event to indicate that the report has been processed.\r\n                emit ReportProcessed(msg.sender, reported, \"Report submitted successfully. Penalty applied.\");\r\n            } else {\r\n                emit ReportProcessed(msg.sender, reported, \"Report submitted successfully, but no penalty applied (insufficient balance).\");\r\n            }\r\n        } else {\r\n            emit ReportProcessed(msg.sender, reported, \"Already reported\");\r\n        }\r\n    }\r\n\r\n    function batchTransferPSC(address[] memory to, uint256[] memory pscIds, uint256[] memory amounts) external onlyOwner {\r\n        require(to.length == pscIds.length && pscIds.length == amounts.length, \"Arrays length mismatch\");\r\n\r\n        for (uint256 i = 0; i < to.length; i++) {\r\n            _mint(to[i], pscIds[i], amounts[i], \"\");\r\n        }\r\n\r\n        emit BatchTransferPSC(to, pscIds, amounts);\r\n    }\r\n\r\n\r\n    // Function to transfer ERC-20 tokens\r\n    function transferERC20(address to, uint256 amount) external onlyOwner {\r\n        fst_erc_20 erc20Token = fst_erc_20(erc20TokenAddress);\r\n        erc20Token.transfer(to, amount);\r\n    }\r\n\r\n    // Function to transfer ERC-721 tokens\r\n    function transferERC721(address to, uint256 tokenId) external onlyOwner {\r\n        fst_erc_721 erc721Token = fst_erc_721(erc721TokenAddress);\r\n        erc721Token.safeTransferFrom(address(this), to, tokenId);\r\n    }\r\n\r\n    // Other functions related to ERC-1155 can be added here\r\n}\r\n",
  "sourcePath": "C:\\Users\\17165\\Desktop\\ps2\\contracts\\fst_erc_1155.sol",
  "compiler": {
    "name": "solc",
    "version": "0.8.13+commit.abaa5c0e.Emscripten.clang"
  },
  "schemaVersion": "3.4.16",
  "updatedAt": "2023-11-19T06:58:36.173Z",
  "networkType": "ethereum",
  "devdoc": {
    "kind": "dev",
    "methods": {
      "balanceOf(address,uint256)": {
        "details": "See {IERC1155-balanceOf}. Requirements: - `account` cannot be the zero address."
      },
      "balanceOfBatch(address[],uint256[])": {
        "details": "See {IERC1155-balanceOfBatch}. Requirements: - `accounts` and `ids` must have the same length."
      },
      "isApprovedForAll(address,address)": {
        "details": "See {IERC1155-isApprovedForAll}."
      },
      "owner()": {
        "details": "Returns the address of the current owner."
      },
      "renounceOwnership()": {
        "details": "Leaves the contract without owner. It will not be possible to call `onlyOwner` functions anymore. Can only be called by the current owner. NOTE: Renouncing ownership will leave the contract without an owner, thereby removing any functionality that is only available to the owner."
      },
      "safeBatchTransferFrom(address,address,uint256[],uint256[],bytes)": {
        "details": "See {IERC1155-safeBatchTransferFrom}."
      },
      "safeTransferFrom(address,address,uint256,uint256,bytes)": {
        "details": "See {IERC1155-safeTransferFrom}."
      },
      "setApprovalForAll(address,bool)": {
        "details": "See {IERC1155-setApprovalForAll}."
      },
      "supportsInterface(bytes4)": {
        "details": "See {IERC165-supportsInterface}."
      },
      "transferOwnership(address)": {
        "details": "Transfers ownership of the contract to a new account (`newOwner`). Can only be called by the current owner."
      },
      "uri(uint256)": {
        "details": "See {IERC1155MetadataURI-uri}. This implementation returns the same URI for *all* token types. It relies on the token type ID substitution mechanism https://eips.ethereum.org/EIPS/eip-1155#metadata[defined in the EIP]. Clients calling this function must replace the `\\{id\\}` substring with the actual token type ID."
      }
    },
    "version": 1
  },
  "userdoc": {
    "kind": "user",
    "methods": {},
    "version": 1
  }
}