{
  "contractName": "fst_erc_721",
  "abi": [
    {
      "inputs": [],
      "stateMutability": "nonpayable",
      "type": "constructor"
    },
    {
      "anonymous": false,
      "inputs": [
        {
          "indexed": true,
          "internalType": "address",
          "name": "owner",
          "type": "address"
        },
        {
          "indexed": true,
          "internalType": "address",
          "name": "approved",
          "type": "address"
        },
        {
          "indexed": true,
          "internalType": "uint256",
          "name": "tokenId",
          "type": "uint256"
        }
      ],
      "name": "Approval",
      "type": "event"
    },
    {
      "anonymous": false,
      "inputs": [
        {
          "indexed": true,
          "internalType": "address",
          "name": "owner",
          "type": "address"
        },
        {
          "indexed": true,
          "internalType": "address",
          "name": "operator",
          "type": "address"
        },
        {
          "indexed": false,
          "internalType": "bool",
          "name": "approved",
          "type": "bool"
        }
      ],
      "name": "ApprovalForAll",
      "type": "event"
    },
    {
      "anonymous": false,
      "inputs": [
        {
          "indexed": true,
          "internalType": "address",
          "name": "previousOwner",
          "type": "address"
        },
        {
          "indexed": true,
          "internalType": "address",
          "name": "newOwner",
          "type": "address"
        }
      ],
      "name": "OwnershipTransferred",
      "type": "event"
    },
    {
      "anonymous": false,
      "inputs": [
        {
          "indexed": false,
          "internalType": "uint256",
          "name": "tokenId",
          "type": "uint256"
        }
      ],
      "name": "PSCAddedToAllPSCs",
      "type": "event"
    },
    {
      "anonymous": false,
      "inputs": [
        {
          "indexed": true,
          "internalType": "address",
          "name": "owner",
          "type": "address"
        },
        {
          "indexed": false,
          "internalType": "uint256",
          "name": "tokenId",
          "type": "uint256"
        },
        {
          "indexed": false,
          "internalType": "string",
          "name": "tokenURI",
          "type": "string"
        }
      ],
      "name": "PSCCreate",
      "type": "event"
    },
    {
      "anonymous": false,
      "inputs": [
        {
          "indexed": true,
          "internalType": "address",
          "name": "from",
          "type": "address"
        },
        {
          "indexed": true,
          "internalType": "address",
          "name": "to",
          "type": "address"
        },
        {
          "indexed": false,
          "internalType": "uint256",
          "name": "tokenId",
          "type": "uint256"
        }
      ],
      "name": "PSCTransfer",
      "type": "event"
    },
    {
      "anonymous": false,
      "inputs": [
        {
          "indexed": false,
          "internalType": "uint256",
          "name": "tokenId",
          "type": "uint256"
        },
        {
          "indexed": false,
          "internalType": "string",
          "name": "Role",
          "type": "string"
        }
      ],
      "name": "PSCUpdateRole",
      "type": "event"
    },
    {
      "anonymous": false,
      "inputs": [
        {
          "indexed": true,
          "internalType": "address",
          "name": "from",
          "type": "address"
        },
        {
          "indexed": true,
          "internalType": "address",
          "name": "to",
          "type": "address"
        },
        {
          "indexed": true,
          "internalType": "uint256",
          "name": "tokenId",
          "type": "uint256"
        }
      ],
      "name": "Transfer",
      "type": "event"
    },
    {
      "inputs": [
        {
          "internalType": "uint256",
          "name": "",
          "type": "uint256"
        }
      ],
      "name": "AllPSCs",
      "outputs": [
        {
          "internalType": "uint256",
          "name": "",
          "type": "uint256"
        }
      ],
      "stateMutability": "view",
      "type": "function",
      "constant": true
    },
    {
      "inputs": [
        {
          "internalType": "uint256",
          "name": "",
          "type": "uint256"
        }
      ],
      "name": "PSCsOwner",
      "outputs": [
        {
          "internalType": "address",
          "name": "",
          "type": "address"
        }
      ],
      "stateMutability": "view",
      "type": "function",
      "constant": true
    },
    {
      "inputs": [
        {
          "internalType": "uint256",
          "name": "",
          "type": "uint256"
        },
        {
          "internalType": "uint256",
          "name": "",
          "type": "uint256"
        }
      ],
      "name": "PSCsRole",
      "outputs": [
        {
          "internalType": "enum fst_erc_721.Role",
          "name": "",
          "type": "uint8"
        }
      ],
      "stateMutability": "view",
      "type": "function",
      "constant": true
    },
    {
      "inputs": [
        {
          "internalType": "address",
          "name": "",
          "type": "address"
        }
      ],
      "name": "addressToRole",
      "outputs": [
        {
          "internalType": "enum fst_erc_721.Role",
          "name": "",
          "type": "uint8"
        }
      ],
      "stateMutability": "view",
      "type": "function",
      "constant": true
    },
    {
      "inputs": [
        {
          "internalType": "address",
          "name": "to",
          "type": "address"
        },
        {
          "internalType": "uint256",
          "name": "tokenId",
          "type": "uint256"
        }
      ],
      "name": "approve",
      "outputs": [],
      "stateMutability": "nonpayable",
      "type": "function"
    },
    {
      "inputs": [
        {
          "internalType": "address",
          "name": "owner",
          "type": "address"
        }
      ],
      "name": "balanceOf",
      "outputs": [
        {
          "internalType": "uint256",
          "name": "",
          "type": "uint256"
        }
      ],
      "stateMutability": "view",
      "type": "function",
      "constant": true
    },
    {
      "inputs": [
        {
          "internalType": "uint256",
          "name": "tokenId",
          "type": "uint256"
        }
      ],
      "name": "getApproved",
      "outputs": [
        {
          "internalType": "address",
          "name": "",
          "type": "address"
        }
      ],
      "stateMutability": "view",
      "type": "function",
      "constant": true
    },
    {
      "inputs": [
        {
          "internalType": "address",
          "name": "owner",
          "type": "address"
        },
        {
          "internalType": "address",
          "name": "operator",
          "type": "address"
        }
      ],
      "name": "isApprovedForAll",
      "outputs": [
        {
          "internalType": "bool",
          "name": "",
          "type": "bool"
        }
      ],
      "stateMutability": "view",
      "type": "function",
      "constant": true
    },
    {
      "inputs": [],
      "name": "name",
      "outputs": [
        {
          "internalType": "string",
          "name": "",
          "type": "string"
        }
      ],
      "stateMutability": "view",
      "type": "function",
      "constant": true
    },
    {
      "inputs": [],
      "name": "owner",
      "outputs": [
        {
          "internalType": "address",
          "name": "",
          "type": "address"
        }
      ],
      "stateMutability": "view",
      "type": "function",
      "constant": true
    },
    {
      "inputs": [
        {
          "internalType": "uint256",
          "name": "tokenId",
          "type": "uint256"
        }
      ],
      "name": "ownerOf",
      "outputs": [
        {
          "internalType": "address",
          "name": "",
          "type": "address"
        }
      ],
      "stateMutability": "view",
      "type": "function",
      "constant": true
    },
    {
      "inputs": [],
      "name": "renounceOwnership",
      "outputs": [],
      "stateMutability": "nonpayable",
      "type": "function"
    },
    {
      "inputs": [
        {
          "internalType": "address",
          "name": "from",
          "type": "address"
        },
        {
          "internalType": "address",
          "name": "to",
          "type": "address"
        },
        {
          "internalType": "uint256",
          "name": "tokenId",
          "type": "uint256"
        }
      ],
      "name": "safeTransferFrom",
      "outputs": [],
      "stateMutability": "nonpayable",
      "type": "function"
    },
    {
      "inputs": [
        {
          "internalType": "address",
          "name": "from",
          "type": "address"
        },
        {
          "internalType": "address",
          "name": "to",
          "type": "address"
        },
        {
          "internalType": "uint256",
          "name": "tokenId",
          "type": "uint256"
        },
        {
          "internalType": "bytes",
          "name": "_data",
          "type": "bytes"
        }
      ],
      "name": "safeTransferFrom",
      "outputs": [],
      "stateMutability": "nonpayable",
      "type": "function"
    },
    {
      "inputs": [
        {
          "internalType": "address",
          "name": "operator",
          "type": "address"
        },
        {
          "internalType": "bool",
          "name": "approved",
          "type": "bool"
        }
      ],
      "name": "setApprovalForAll",
      "outputs": [],
      "stateMutability": "nonpayable",
      "type": "function"
    },
    {
      "inputs": [
        {
          "internalType": "bytes4",
          "name": "interfaceId",
          "type": "bytes4"
        }
      ],
      "name": "supportsInterface",
      "outputs": [
        {
          "internalType": "bool",
          "name": "",
          "type": "bool"
        }
      ],
      "stateMutability": "view",
      "type": "function",
      "constant": true
    },
    {
      "inputs": [],
      "name": "symbol",
      "outputs": [
        {
          "internalType": "string",
          "name": "",
          "type": "string"
        }
      ],
      "stateMutability": "view",
      "type": "function",
      "constant": true
    },
    {
      "inputs": [
        {
          "internalType": "uint256",
          "name": "tokenId",
          "type": "uint256"
        }
      ],
      "name": "tokenURI",
      "outputs": [
        {
          "internalType": "string",
          "name": "",
          "type": "string"
        }
      ],
      "stateMutability": "view",
      "type": "function",
      "constant": true
    },
    {
      "inputs": [
        {
          "internalType": "address",
          "name": "from",
          "type": "address"
        },
        {
          "internalType": "address",
          "name": "to",
          "type": "address"
        },
        {
          "internalType": "uint256",
          "name": "tokenId",
          "type": "uint256"
        }
      ],
      "name": "transferFrom",
      "outputs": [],
      "stateMutability": "nonpayable",
      "type": "function"
    },
    {
      "inputs": [
        {
          "internalType": "address",
          "name": "newOwner",
          "type": "address"
        }
      ],
      "name": "transferOwnership",
      "outputs": [],
      "stateMutability": "nonpayable",
      "type": "function"
    },
    {
      "inputs": [
        {
          "internalType": "address",
          "name": "user",
          "type": "address"
        }
      ],
      "name": "getCurrentRole",
      "outputs": [
        {
          "internalType": "enum fst_erc_721.Role",
          "name": "",
          "type": "uint8"
        }
      ],
      "stateMutability": "view",
      "type": "function",
      "constant": true
    },
    {
      "inputs": [
        {
          "internalType": "address",
          "name": "userAddress",
          "type": "address"
        },
        {
          "internalType": "enum fst_erc_721.Role",
          "name": "newRole",
          "type": "uint8"
        }
      ],
      "name": "register",
      "outputs": [],
      "stateMutability": "nonpayable",
      "type": "function"
    },
    {
      "inputs": [
        {
          "internalType": "address",
          "name": "userAddress",
          "type": "address"
        }
      ],
      "name": "login",
      "outputs": [
        {
          "internalType": "string",
          "name": "",
          "type": "string"
        }
      ],
      "stateMutability": "view",
      "type": "function",
      "constant": true
    },
    {
      "inputs": [
        {
          "internalType": "address",
          "name": "to",
          "type": "address"
        }
      ],
      "name": "createPSC",
      "outputs": [
        {
          "internalType": "uint256",
          "name": "",
          "type": "uint256"
        }
      ],
      "stateMutability": "nonpayable",
      "type": "function"
    },
    {
      "inputs": [
        {
          "internalType": "address",
          "name": "to",
          "type": "address"
        },
        {
          "internalType": "uint256",
          "name": "tokenId",
          "type": "uint256"
        },
        {
          "internalType": "enum fst_erc_721.Role",
          "name": "newRole",
          "type": "uint8"
        }
      ],
      "name": "transferPSC",
      "outputs": [],
      "stateMutability": "nonpayable",
      "type": "function"
    },
    {
      "inputs": [
        {
          "internalType": "uint256",
          "name": "tokenId",
          "type": "uint256"
        }
      ],
      "name": "getPreviousOwner",
      "outputs": [
        {
          "internalType": "address",
          "name": "",
          "type": "address"
        }
      ],
      "stateMutability": "view",
      "type": "function",
      "constant": true
    },
    {
      "inputs": [],
      "name": "getAllPSCs",
      "outputs": [
        {
          "internalType": "uint256[]",
          "name": "",
          "type": "uint256[]"
        }
      ],
      "stateMutability": "view",
      "type": "function",
      "constant": true
    }
  ],
  "bytecode": "0x60806040523480156200001157600080fd5b506040518060400160405280601b81526020017f50726f64756374205361666574792043657274696669636174657300000000008152506040518060400160405280600381526020017f505343000000000000000000000000000000000000000000000000000000000081525081600090805190602001906200009692919062000171565b508060019080519060200190620000af92919062000171565b5050506000620000c46200016960201b60201c565b905080600760006101000a81548173ffffffffffffffffffffffffffffffffffffffff021916908373ffffffffffffffffffffffffffffffffffffffff1602179055508073ffffffffffffffffffffffffffffffffffffffff16600073ffffffffffffffffffffffffffffffffffffffff167f8be0079c531659141344cd1fd0a4f28419497f9722a3daafe3b4186f6b6457e060405160405180910390a35062000285565b600033905090565b8280546200017f9062000250565b90600052602060002090601f016020900481019282620001a35760008555620001ef565b82601f10620001be57805160ff1916838001178555620001ef565b82800160010185558215620001ef579182015b82811115620001ee578251825591602001919060010190620001d1565b5b509050620001fe919062000202565b5090565b5b808211156200021d57600081600090555060010162000203565b5090565b7f4e487b7100000000000000000000000000000000000000000000000000000000600052602260045260246000fd5b600060028204905060018216806200026957607f821691505b6020821081036200027f576200027e62000221565b5b50919050565b6145f180620002956000396000f3fe608060405234801561001057600080fd5b50600436106101a85760003560e01c80635c10dd96116100f957806395d89b4111610097578063c87b56dd11610071578063c87b56dd14610503578063e486a92614610533578063e985e9c514610563578063f2fde38b14610593576101a8565b806395d89b41146104ad578063a22cb465146104cb578063b88d4fde146104e7576101a8565b806370a08231116100d357806370a0823114610437578063715018a6146104675780638da5cb5b1461047157806392e01ec81461048f576101a8565b80635c10dd96146103a75780636352211e146103d757806368aa9d1a14610407576101a8565b8063095ea7b3116101665780633b837047116101405780633b8370471461030f5780633bf201661461032b57806342842e0e1461035b578063568379cd14610377576101a8565b8063095ea7b3146102a757806323b872dd146102c357806335a6861a146102df576101a8565b806256856a146101ad57806301ffc9a7146101dd57806305fae47c1461020d57806306fdde031461023d57806307e495981461025b578063081812fc14610277575b600080fd5b6101c760048036038101906101c29190612c12565b6105af565b6040516101d49190612c80565b60405180910390f35b6101f760048036038101906101f29190612cf3565b61066e565b6040516102049190612d3b565b60405180910390f35b61022760048036038101906102229190612d82565b610750565b6040516102349190612dbe565b60405180910390f35b61024561096a565b6040516102529190612e72565b60405180910390f35b61027560048036038101906102709190612eb9565b6109fc565b005b610291600480360381019061028c9190612c12565b610c4e565b60405161029e9190612c80565b60405180910390f35b6102c160048036038101906102bc9190612ef9565b610cd3565b005b6102dd60048036038101906102d89190612f39565b610dea565b005b6102f960048036038101906102f49190612d82565b610e4a565b6040516103069190612e72565b60405180910390f35b61032960048036038101906103249190612f8c565b61117a565b005b61034560048036038101906103409190612fdf565b611539565b6040516103529190613096565b60405180910390f35b61037560048036038101906103709190612f39565b61157c565b005b610391600480360381019061038c9190612c12565b61159c565b60405161039e9190612c80565b60405180910390f35b6103c160048036038101906103bc9190612d82565b6115cf565b6040516103ce9190613096565b60405180910390f35b6103f160048036038101906103ec9190612c12565b611668565b6040516103fe9190612c80565b60405180910390f35b610421600480360381019061041c9190612d82565b611719565b60405161042e9190613096565b60405180910390f35b610451600480360381019061044c9190612d82565b611739565b60405161045e9190612dbe565b60405180910390f35b61046f6117f0565b005b61047961192d565b6040516104869190612c80565b60405180910390f35b610497611957565b6040516104a4919061316f565b60405180910390f35b6104b56119af565b6040516104c29190612e72565b60405180910390f35b6104e560048036038101906104e091906131bd565b611a41565b005b61050160048036038101906104fc9190613332565b611bc1565b005b61051d60048036038101906105189190612c12565b611c23565b60405161052a9190612e72565b60405180910390f35b61054d60048036038101906105489190612c12565b611d74565b60405161055a9190612dbe565b60405180910390f35b61057d600480360381019061057891906133b5565b611d98565b60405161058a9190612d3b565b60405180910390f35b6105ad60048036038101906105a89190612d82565b611e2c565b005b600080821180156105c957506105c56008611fd7565b8211155b610608576040517f08c379a00000000000000000000000000000000000000000000000000000000081526004016105ff90613441565b60405180910390fd5b600182111561065e5760006001836106209190613490565b90506009600082815260200190815260200160002060009054906101000a900473ffffffffffffffffffffffffffffffffffffffff16915050610669565b61066661192d565b90505b919050565b60007f80ac58cd000000000000000000000000000000000000000000000000000000007bffffffffffffffffffffffffffffffffffffffffffffffffffffffff1916827bffffffffffffffffffffffffffffffffffffffffffffffffffffffff1916148061073957507f5b5e139f000000000000000000000000000000000000000000000000000000007bffffffffffffffffffffffffffffffffffffffffffffffffffffffff1916827bffffffffffffffffffffffffffffffffffffffffffffffffffffffff1916145b80610749575061074882611fe5565b5b9050919050565b60008060048111156107655761076461301f565b5b61076e336115cf565b60048111156107805761077f61301f565b5b146107c0576040517f08c379a00000000000000000000000000000000000000000000000000000000081526004016107b790613510565b60405180910390fd5b6107ca600861204f565b60006107d66008611fd7565b90506107e28382612065565b6107fb8160405180602001604052806000815250612232565b826009600083815260200190815260200160002060006101000a81548173ffffffffffffffffffffffffffffffffffffffff021916908373ffffffffffffffffffffffffffffffffffffffff160217905550600a6000828152602001908152602001600020600090806001815401808255809150506001900390600052602060002090602091828204019190069091909190916101000a81548160ff021916908360048111156108ae576108ad61301f565b5b0217905550600c8190806001815401808255809150506001900390600052602060002001600090919091909150558273ffffffffffffffffffffffffffffffffffffffff167fb88bcd8fde2428ea5267529add4c9f9a3c52103bd40b035971b5029b331b5870826040516109229190613556565b60405180910390a27fe83f61d52829ce707c5dc6be634880debd48025af160bdf5ff141027d4053641816040516109599190612dbe565b60405180910390a180915050919050565b606060008054610979906135b3565b80601f01602080910402602001604051908101604052809291908181526020018280546109a5906135b3565b80156109f25780601f106109c7576101008083540402835291602001916109f2565b820191906000526020600020905b8154815290600101906020018083116109d557829003601f168201915b5050505050905090565b60006004811115610a1057610a0f61301f565b5b816004811115610a2357610a2261301f565b5b1480610a53575060016004811115610a3e57610a3d61301f565b5b816004811115610a5157610a5061301f565b5b145b80610a82575060026004811115610a6d57610a6c61301f565b5b816004811115610a8057610a7f61301f565b5b145b80610ab1575060036004811115610a9c57610a9b61301f565b5b816004811115610aaf57610aae61301f565b5b145b80610adf5750600480811115610aca57610ac961301f565b5b816004811115610add57610adc61301f565b5b145b610b1e576040517f08c379a0000000000000000000000000000000000000000000000000000000008152600401610b1590613630565b60405180910390fd5b60006004811115610b3257610b3161301f565b5b6004811115610b4457610b4361301f565b5b600b60008473ffffffffffffffffffffffffffffffffffffffff1673ffffffffffffffffffffffffffffffffffffffff16815260200190815260200160002060009054906101000a900460ff166004811115610ba357610ba261301f565b5b14610be3576040517f08c379a0000000000000000000000000000000000000000000000000000000008152600401610bda9061369c565b60405180910390fd5b80600b60008473ffffffffffffffffffffffffffffffffffffffff1673ffffffffffffffffffffffffffffffffffffffff16815260200190815260200160002060006101000a81548160ff02191690836004811115610c4557610c4461301f565b5b02179055505050565b6000610c59826122a6565b610c98576040517f08c379a0000000000000000000000000000000000000000000000000000000008152600401610c8f9061372e565b60405180910390fd5b6004600083815260200190815260200160002060009054906101000a900473ffffffffffffffffffffffffffffffffffffffff169050919050565b6000610cde82611668565b90508073ffffffffffffffffffffffffffffffffffffffff168373ffffffffffffffffffffffffffffffffffffffff1603610d4e576040517f08c379a0000000000000000000000000000000000000000000000000000000008152600401610d45906137c0565b60405180910390fd5b8073ffffffffffffffffffffffffffffffffffffffff16610d6d612312565b73ffffffffffffffffffffffffffffffffffffffff161480610d9c5750610d9b81610d96612312565b611d98565b5b610ddb576040517f08c379a0000000000000000000000000000000000000000000000000000000008152600401610dd290613852565b60405180910390fd5b610de5838361231a565b505050565b610dfb610df5612312565b826123d3565b610e3a576040517f08c379a0000000000000000000000000000000000000000000000000000000008152600401610e31906138e4565b60405180910390fd5b610e458383836124b1565b505050565b606060006004811115610e6057610e5f61301f565b5b6004811115610e7257610e7161301f565b5b600b60008473ffffffffffffffffffffffffffffffffffffffff1673ffffffffffffffffffffffffffffffffffffffff16815260200190815260200160002060009054906101000a900460ff166004811115610ed157610ed061301f565b5b03610f11576040517f08c379a0000000000000000000000000000000000000000000000000000000008152600401610f0890613950565b60405180910390fd5b6000600b60008473ffffffffffffffffffffffffffffffffffffffff1673ffffffffffffffffffffffffffffffffffffffff16815260200190815260200160002060009054906101000a900460ff169050606060006004811115610f7857610f7761301f565b5b826004811115610f8b57610f8a61301f565b5b03610fcd576040518060400160405280600c81526020017f4d616e75666163747572657200000000000000000000000000000000000000008152509050611170565b60016004811115610fe157610fe061301f565b5b826004811115610ff457610ff361301f565b5b03611036576040518060400160405280600d81526020017f41646d696e6973747261746f7200000000000000000000000000000000000000815250905061116f565b6002600481111561104a5761104961301f565b5b82600481111561105d5761105c61301f565b5b0361109f576040518060400160405280600881526020017f436f6e73756d6572000000000000000000000000000000000000000000000000815250905061116e565b600360048111156110b3576110b261301f565b5b8260048111156110c6576110c561301f565b5b03611108576040518060400160405280600681526020017f5472616465720000000000000000000000000000000000000000000000000000815250905061116d565b60048081111561111b5761111a61301f565b5b82600481111561112e5761112d61301f565b5b0361116c576040518060400160405280600681526020017f576f726b6572000000000000000000000000000000000000000000000000000081525090505b5b5b5b5b8092505050919050565b813373ffffffffffffffffffffffffffffffffffffffff1661119b82611668565b73ffffffffffffffffffffffffffffffffffffffff16146111f1576040517f08c379a00000000000000000000000000000000000000000000000000000000081526004016111e8906139bc565b60405180910390fd5b8373ffffffffffffffffffffffffffffffffffffffff163373ffffffffffffffffffffffffffffffffffffffff160361125f576040517f08c379a000000000000000000000000000000000000000000000000000000000815260040161125690613a28565b60405180910390fd5b61126a33858561157c565b600a60008481526020019081526020016000208290806001815401808255809150506001900390600052602060002090602091828204019190069091909190916101000a81548160ff021916908360048111156112ca576112c961301f565b5b02179055506004808111156112e2576112e161301f565b5b8260048111156112f5576112f461301f565b5b0361139b578373ffffffffffffffffffffffffffffffffffffffff163373ffffffffffffffffffffffffffffffffffffffff167fdfffa30db29072826c1de7c50e0085b27b7e2c909f02528a70d2c7718b29051f856040516113579190612dbe565b60405180910390a37f3ae8eafc56fa4bdb798ba0fe617645f4a6cc43979f938dc57481a42ae527d5638360405161138e9190613a94565b60405180910390a1611533565b600360048111156113af576113ae61301f565b5b8260048111156113c2576113c161301f565b5b03611468578373ffffffffffffffffffffffffffffffffffffffff163373ffffffffffffffffffffffffffffffffffffffff167fdfffa30db29072826c1de7c50e0085b27b7e2c909f02528a70d2c7718b29051f856040516114249190612dbe565b60405180910390a37f3ae8eafc56fa4bdb798ba0fe617645f4a6cc43979f938dc57481a42ae527d5638360405161145b9190613b0e565b60405180910390a1611532565b6002600481111561147c5761147b61301f565b5b82600481111561148f5761148e61301f565b5b03611531578373ffffffffffffffffffffffffffffffffffffffff163373ffffffffffffffffffffffffffffffffffffffff167fdfffa30db29072826c1de7c50e0085b27b7e2c909f02528a70d2c7718b29051f856040516114f19190612dbe565b60405180910390a37f3ae8eafc56fa4bdb798ba0fe617645f4a6cc43979f938dc57481a42ae527d563836040516115289190613b88565b60405180910390a15b5b5b50505050565b600a602052816000526040600020818154811061155557600080fd5b9060005260206000209060209182820401919006915091509054906101000a900460ff1681565b61159783838360405180602001604052806000815250611bc1565b505050565b60096020528060005260406000206000915054906101000a900473ffffffffffffffffffffffffffffffffffffffff1681565b6000806115dc6008611fd7565b90506000600a6000838152602001908152602001600020805490509050600081111561165c57600a60008381526020019081526020016000206001826116229190613490565b8154811061163357611632613bb6565b5b90600052602060002090602091828204019190069054906101000a900460ff1692505050611663565b6000925050505b919050565b6000806002600084815260200190815260200160002060009054906101000a900473ffffffffffffffffffffffffffffffffffffffff169050600073ffffffffffffffffffffffffffffffffffffffff168173ffffffffffffffffffffffffffffffffffffffff1603611710576040517f08c379a000000000000000000000000000000000000000000000000000000000815260040161170790613c57565b60405180910390fd5b80915050919050565b600b6020528060005260406000206000915054906101000a900460ff1681565b60008073ffffffffffffffffffffffffffffffffffffffff168273ffffffffffffffffffffffffffffffffffffffff16036117a9576040517f08c379a00000000000000000000000000000000000000000000000000000000081526004016117a090613ce9565b60405180910390fd5b600360008373ffffffffffffffffffffffffffffffffffffffff1673ffffffffffffffffffffffffffffffffffffffff168152602001908152602001600020549050919050565b6117f8612312565b73ffffffffffffffffffffffffffffffffffffffff1661181661192d565b73ffffffffffffffffffffffffffffffffffffffff161461186c576040517f08c379a000000000000000000000000000000000000000000000000000000000815260040161186390613d55565b60405180910390fd5b600073ffffffffffffffffffffffffffffffffffffffff16600760009054906101000a900473ffffffffffffffffffffffffffffffffffffffff1673ffffffffffffffffffffffffffffffffffffffff167f8be0079c531659141344cd1fd0a4f28419497f9722a3daafe3b4186f6b6457e060405160405180910390a36000600760006101000a81548173ffffffffffffffffffffffffffffffffffffffff021916908373ffffffffffffffffffffffffffffffffffffffff160217905550565b6000600760009054906101000a900473ffffffffffffffffffffffffffffffffffffffff16905090565b6060600c8054806020026020016040519081016040528092919081815260200182805480156119a557602002820191906000526020600020905b815481526020019060010190808311611991575b5050505050905090565b6060600180546119be906135b3565b80601f01602080910402602001604051908101604052809291908181526020018280546119ea906135b3565b8015611a375780601f10611a0c57610100808354040283529160200191611a37565b820191906000526020600020905b815481529060010190602001808311611a1a57829003601f168201915b5050505050905090565b611a49612312565b73ffffffffffffffffffffffffffffffffffffffff168273ffffffffffffffffffffffffffffffffffffffff1603611ab6576040517f08c379a0000000000000000000000000000000000000000000000000000000008152600401611aad90613dc1565b60405180910390fd5b8060056000611ac3612312565b73ffffffffffffffffffffffffffffffffffffffff1673ffffffffffffffffffffffffffffffffffffffff16815260200190815260200160002060008473ffffffffffffffffffffffffffffffffffffffff1673ffffffffffffffffffffffffffffffffffffffff16815260200190815260200160002060006101000a81548160ff0219169083151502179055508173ffffffffffffffffffffffffffffffffffffffff16611b70612312565b73ffffffffffffffffffffffffffffffffffffffff167f17307eab39ab6107e8899845ad3d59bd9653f200f220920489ca2b5937696c3183604051611bb59190612d3b565b60405180910390a35050565b611bd2611bcc612312565b836123d3565b611c11576040517f08c379a0000000000000000000000000000000000000000000000000000000008152600401611c08906138e4565b60405180910390fd5b611c1d8484848461270c565b50505050565b6060611c2e826122a6565b611c6d576040517f08c379a0000000000000000000000000000000000000000000000000000000008152600401611c6490613e53565b60405180910390fd5b6000600660008481526020019081526020016000208054611c8d906135b3565b80601f0160208091040260200160405190810160405280929190818152602001828054611cb9906135b3565b8015611d065780601f10611cdb57610100808354040283529160200191611d06565b820191906000526020600020905b815481529060010190602001808311611ce957829003601f168201915b505050505090506000611d17612768565b90506000815103611d2c578192505050611d6f565b600082511115611d61578082604051602001611d49929190613eaf565b60405160208183030381529060405292505050611d6f565b611d6a8461277f565b925050505b919050565b600c8181548110611d8457600080fd5b906000526020600020016000915090505481565b6000600560008473ffffffffffffffffffffffffffffffffffffffff1673ffffffffffffffffffffffffffffffffffffffff16815260200190815260200160002060008373ffffffffffffffffffffffffffffffffffffffff1673ffffffffffffffffffffffffffffffffffffffff16815260200190815260200160002060009054906101000a900460ff16905092915050565b611e34612312565b73ffffffffffffffffffffffffffffffffffffffff16611e5261192d565b73ffffffffffffffffffffffffffffffffffffffff1614611ea8576040517f08c379a0000000000000000000000000000000000000000000000000000000008152600401611e9f90613d55565b60405180910390fd5b600073ffffffffffffffffffffffffffffffffffffffff168173ffffffffffffffffffffffffffffffffffffffff1603611f17576040517f08c379a0000000000000000000000000000000000000000000000000000000008152600401611f0e90613f45565b60405180910390fd5b8073ffffffffffffffffffffffffffffffffffffffff16600760009054906101000a900473ffffffffffffffffffffffffffffffffffffffff1673ffffffffffffffffffffffffffffffffffffffff167f8be0079c531659141344cd1fd0a4f28419497f9722a3daafe3b4186f6b6457e060405160405180910390a380600760006101000a81548173ffffffffffffffffffffffffffffffffffffffff021916908373ffffffffffffffffffffffffffffffffffffffff16021790555050565b600081600001549050919050565b60007f01ffc9a7000000000000000000000000000000000000000000000000000000007bffffffffffffffffffffffffffffffffffffffffffffffffffffffff1916827bffffffffffffffffffffffffffffffffffffffffffffffffffffffff1916149050919050565b6001816000016000828254019250508190555050565b600073ffffffffffffffffffffffffffffffffffffffff168273ffffffffffffffffffffffffffffffffffffffff16036120d4576040517f08c379a00000000000000000000000000000000000000000000000000000000081526004016120cb90613fb1565b60405180910390fd5b6120dd816122a6565b1561211d576040517f08c379a00000000000000000000000000000000000000000000000000000000081526004016121149061401d565b60405180910390fd5b61212960008383612826565b6001600360008473ffffffffffffffffffffffffffffffffffffffff1673ffffffffffffffffffffffffffffffffffffffff1681526020019081526020016000206000828254612179919061403d565b92505081905550816002600083815260200190815260200160002060006101000a81548173ffffffffffffffffffffffffffffffffffffffff021916908373ffffffffffffffffffffffffffffffffffffffff160217905550808273ffffffffffffffffffffffffffffffffffffffff16600073ffffffffffffffffffffffffffffffffffffffff167fddf252ad1be2c89b69c2b068fc378daa952ba7f163c4a11628f55a4df523b3ef60405160405180910390a45050565b61223b826122a6565b61227a576040517f08c379a000000000000000000000000000000000000000000000000000000000815260040161227190614105565b60405180910390fd5b806006600084815260200190815260200160002090805190602001906122a1929190612b25565b505050565b60008073ffffffffffffffffffffffffffffffffffffffff166002600084815260200190815260200160002060009054906101000a900473ffffffffffffffffffffffffffffffffffffffff1673ffffffffffffffffffffffffffffffffffffffff1614159050919050565b600033905090565b816004600083815260200190815260200160002060006101000a81548173ffffffffffffffffffffffffffffffffffffffff021916908373ffffffffffffffffffffffffffffffffffffffff160217905550808273ffffffffffffffffffffffffffffffffffffffff1661238d83611668565b73ffffffffffffffffffffffffffffffffffffffff167f8c5be1e5ebec7d5bd14f71427d1e84f3dd0314c0f7b2291e5b200ac8c7c3b92560405160405180910390a45050565b60006123de826122a6565b61241d576040517f08c379a000000000000000000000000000000000000000000000000000000000815260040161241490614197565b60405180910390fd5b600061242883611668565b90508073ffffffffffffffffffffffffffffffffffffffff168473ffffffffffffffffffffffffffffffffffffffff16148061249757508373ffffffffffffffffffffffffffffffffffffffff1661247f84610c4e565b73ffffffffffffffffffffffffffffffffffffffff16145b806124a857506124a78185611d98565b5b91505092915050565b8273ffffffffffffffffffffffffffffffffffffffff166124d182611668565b73ffffffffffffffffffffffffffffffffffffffff1614612527576040517f08c379a000000000000000000000000000000000000000000000000000000000815260040161251e90614229565b60405180910390fd5b600073ffffffffffffffffffffffffffffffffffffffff168273ffffffffffffffffffffffffffffffffffffffff1603612596576040517f08c379a000000000000000000000000000000000000000000000000000000000815260040161258d906142bb565b60405180910390fd5b6125a1838383612826565b6125ac60008261231a565b6001600360008573ffffffffffffffffffffffffffffffffffffffff1673ffffffffffffffffffffffffffffffffffffffff16815260200190815260200160002060008282546125fc9190613490565b925050819055506001600360008473ffffffffffffffffffffffffffffffffffffffff1673ffffffffffffffffffffffffffffffffffffffff1681526020019081526020016000206000828254612653919061403d565b92505081905550816002600083815260200190815260200160002060006101000a81548173ffffffffffffffffffffffffffffffffffffffff021916908373ffffffffffffffffffffffffffffffffffffffff160217905550808273ffffffffffffffffffffffffffffffffffffffff168473ffffffffffffffffffffffffffffffffffffffff167fddf252ad1be2c89b69c2b068fc378daa952ba7f163c4a11628f55a4df523b3ef60405160405180910390a4505050565b6127178484846124b1565b6127238484848461282b565b612762576040517f08c379a00000000000000000000000000000000000000000000000000000000081526004016127599061434d565b60405180910390fd5b50505050565b606060405180602001604052806000815250905090565b606061278a826122a6565b6127c9576040517f08c379a00000000000000000000000000000000000000000000000000000000081526004016127c0906143df565b60405180910390fd5b60006127d3612768565b905060008151116127f3576040518060200160405280600081525061281e565b806127fd846129b2565b60405160200161280e929190613eaf565b6040516020818303038152906040525b915050919050565b505050565b600061284c8473ffffffffffffffffffffffffffffffffffffffff16612b12565b156129a5578373ffffffffffffffffffffffffffffffffffffffff1663150b7a02612875612312565b8786866040518563ffffffff1660e01b81526004016128979493929190614454565b6020604051808303816000875af19250505080156128d357506040513d601f19601f820116820180604052508101906128d091906144b5565b60015b612955573d8060008114612903576040519150601f19603f3d011682016040523d82523d6000602084013e612908565b606091505b50600081510361294d576040517f08c379a00000000000000000000000000000000000000000000000000000000081526004016129449061434d565b60405180910390fd5b805181602001fd5b63150b7a0260e01b7bffffffffffffffffffffffffffffffffffffffffffffffffffffffff1916817bffffffffffffffffffffffffffffffffffffffffffffffffffffffff1916149150506129aa565b600190505b949350505050565b6060600082036129f9576040518060400160405280600181526020017f30000000000000000000000000000000000000000000000000000000000000008152509050612b0d565b600082905060005b60008214612a2b578080612a14906144e2565b915050600a82612a249190614559565b9150612a01565b60008167ffffffffffffffff811115612a4757612a46613207565b5b6040519080825280601f01601f191660200182016040528015612a795781602001600182028036833780820191505090505b5090505b60008514612b0657600182612a929190613490565b9150600a85612aa1919061458a565b6030612aad919061403d565b60f81b818381518110612ac357612ac2613bb6565b5b60200101907effffffffffffffffffffffffffffffffffffffffffffffffffffffffffffff1916908160001a905350600a85612aff9190614559565b9450612a7d565b8093505050505b919050565b600080823b905060008111915050919050565b828054612b31906135b3565b90600052602060002090601f016020900481019282612b535760008555612b9a565b82601f10612b6c57805160ff1916838001178555612b9a565b82800160010185558215612b9a579182015b82811115612b99578251825591602001919060010190612b7e565b5b509050612ba79190612bab565b5090565b5b80821115612bc4576000816000905550600101612bac565b5090565b6000604051905090565b600080fd5b600080fd5b6000819050919050565b612bef81612bdc565b8114612bfa57600080fd5b50565b600081359050612c0c81612be6565b92915050565b600060208284031215612c2857612c27612bd2565b5b6000612c3684828501612bfd565b91505092915050565b600073ffffffffffffffffffffffffffffffffffffffff82169050919050565b6000612c6a82612c3f565b9050919050565b612c7a81612c5f565b82525050565b6000602082019050612c956000830184612c71565b92915050565b60007fffffffff0000000000000000000000000000000000000000000000000000000082169050919050565b612cd081612c9b565b8114612cdb57600080fd5b50565b600081359050612ced81612cc7565b92915050565b600060208284031215612d0957612d08612bd2565b5b6000612d1784828501612cde565b91505092915050565b60008115159050919050565b612d3581612d20565b82525050565b6000602082019050612d506000830184612d2c565b92915050565b612d5f81612c5f565b8114612d6a57600080fd5b50565b600081359050612d7c81612d56565b92915050565b600060208284031215612d9857612d97612bd2565b5b6000612da684828501612d6d565b91505092915050565b612db881612bdc565b82525050565b6000602082019050612dd36000830184612daf565b92915050565b600081519050919050565b600082825260208201905092915050565b60005b83811015612e13578082015181840152602081019050612df8565b83811115612e22576000848401525b50505050565b6000601f19601f8301169050919050565b6000612e4482612dd9565b612e4e8185612de4565b9350612e5e818560208601612df5565b612e6781612e28565b840191505092915050565b60006020820190508181036000830152612e8c8184612e39565b905092915050565b60058110612ea157600080fd5b50565b600081359050612eb381612e94565b92915050565b60008060408385031215612ed057612ecf612bd2565b5b6000612ede85828601612d6d565b9250506020612eef85828601612ea4565b9150509250929050565b60008060408385031215612f1057612f0f612bd2565b5b6000612f1e85828601612d6d565b9250506020612f2f85828601612bfd565b9150509250929050565b600080600060608486031215612f5257612f51612bd2565b5b6000612f6086828701612d6d565b9350506020612f7186828701612d6d565b9250506040612f8286828701612bfd565b9150509250925092565b600080600060608486031215612fa557612fa4612bd2565b5b6000612fb386828701612d6d565b9350506020612fc486828701612bfd565b9250506040612fd586828701612ea4565b9150509250925092565b60008060408385031215612ff657612ff5612bd2565b5b600061300485828601612bfd565b925050602061301585828601612bfd565b9150509250929050565b7f4e487b7100000000000000000000000000000000000000000000000000000000600052602160045260246000fd5b6005811061305f5761305e61301f565b5b50565b60008190506130708261304e565b919050565b600061308082613062565b9050919050565b61309081613075565b82525050565b60006020820190506130ab6000830184613087565b92915050565b600081519050919050565b600082825260208201905092915050565b6000819050602082019050919050565b6130e681612bdc565b82525050565b60006130f883836130dd565b60208301905092915050565b6000602082019050919050565b600061311c826130b1565b61312681856130bc565b9350613131836130cd565b8060005b8381101561316257815161314988826130ec565b975061315483613104565b925050600181019050613135565b5085935050505092915050565b600060208201905081810360008301526131898184613111565b905092915050565b61319a81612d20565b81146131a557600080fd5b50565b6000813590506131b781613191565b92915050565b600080604083850312156131d4576131d3612bd2565b5b60006131e285828601612d6d565b92505060206131f3858286016131a8565b9150509250929050565b600080fd5b600080fd5b7f4e487b7100000000000000000000000000000000000000000000000000000000600052604160045260246000fd5b61323f82612e28565b810181811067ffffffffffffffff8211171561325e5761325d613207565b5b80604052505050565b6000613271612bc8565b905061327d8282613236565b919050565b600067ffffffffffffffff82111561329d5761329c613207565b5b6132a682612e28565b9050602081019050919050565b82818337600083830152505050565b60006132d56132d084613282565b613267565b9050828152602081018484840111156132f1576132f0613202565b5b6132fc8482856132b3565b509392505050565b600082601f830112613319576133186131fd565b5b81356133298482602086016132c2565b91505092915050565b6000806000806080858703121561334c5761334b612bd2565b5b600061335a87828801612d6d565b945050602061336b87828801612d6d565b935050604061337c87828801612bfd565b925050606085013567ffffffffffffffff81111561339d5761339c612bd7565b5b6133a987828801613304565b91505092959194509250565b600080604083850312156133cc576133cb612bd2565b5b60006133da85828601612d6d565b92505060206133eb85828601612d6d565b9150509250929050565b7f496e76616c696420746f6b656e49640000000000000000000000000000000000600082015250565b600061342b600f83612de4565b9150613436826133f5565b602082019050919050565b6000602082019050818103600083015261345a8161341e565b9050919050565b7f4e487b7100000000000000000000000000000000000000000000000000000000600052601160045260246000fd5b600061349b82612bdc565b91506134a683612bdc565b9250828210156134b9576134b8613461565b5b828203905092915050565b7f4f6e6c79204d616e75666163747572652063616e206372656174652050534373600082015250565b60006134fa602083612de4565b9150613505826134c4565b602082019050919050565b60006020820190508181036000830152613529816134ed565b9050919050565b50565b6000613540600083612de4565b915061354b82613530565b600082019050919050565b600060408201905061356b6000830184612daf565b818103602083015261357c81613533565b905092915050565b7f4e487b7100000000000000000000000000000000000000000000000000000000600052602260045260246000fd5b600060028204905060018216806135cb57607f821691505b6020821081036135de576135dd613584565b5b50919050565b7f496e76616c696420726f6c650000000000000000000000000000000000000000600082015250565b600061361a600c83612de4565b9150613625826135e4565b602082019050919050565b600060208201905081810360008301526136498161360d565b9050919050565b7f4164647265737320697320616c72656164792072656769737465726564000000600082015250565b6000613686601d83612de4565b915061369182613650565b602082019050919050565b600060208201905081810360008301526136b581613679565b9050919050565b7f4552433732313a20617070726f76656420717565727920666f72206e6f6e657860008201527f697374656e7420746f6b656e0000000000000000000000000000000000000000602082015250565b6000613718602c83612de4565b9150613723826136bc565b604082019050919050565b600060208201905081810360008301526137478161370b565b9050919050565b7f4552433732313a20617070726f76616c20746f2063757272656e74206f776e6560008201527f7200000000000000000000000000000000000000000000000000000000000000602082015250565b60006137aa602183612de4565b91506137b58261374e565b604082019050919050565b600060208201905081810360008301526137d98161379d565b9050919050565b7f4552433732313a20617070726f76652063616c6c6572206973206e6f74206f7760008201527f6e6572206e6f7220617070726f76656420666f7220616c6c0000000000000000602082015250565b600061383c603883612de4565b9150613847826137e0565b604082019050919050565b6000602082019050818103600083015261386b8161382f565b9050919050565b7f4552433732313a207472616e736665722063616c6c6572206973206e6f74206f60008201527f776e6572206e6f7220617070726f766564000000000000000000000000000000602082015250565b60006138ce603183612de4565b91506138d982613872565b604082019050919050565b600060208201905081810360008301526138fd816138c1565b9050919050565b7f41646472657373206973206e6f74207265676973746572656400000000000000600082015250565b600061393a601983612de4565b915061394582613904565b602082019050919050565b600060208201905081810360008301526139698161392d565b9050919050565b7f4f6e6c7920505343734f776e65722063616e2061636365737300000000000000600082015250565b60006139a6601983612de4565b91506139b182613970565b602082019050919050565b600060208201905081810360008301526139d581613999565b9050919050565b7f43616e6e6f74207472616e7366657220746f2063757272656e74206f776e6572600082015250565b6000613a12602083612de4565b9150613a1d826139dc565b602082019050919050565b60006020820190508181036000830152613a4181613a05565b9050919050565b7f576f726b65720000000000000000000000000000000000000000000000000000600082015250565b6000613a7e600683612de4565b9150613a8982613a48565b602082019050919050565b6000604082019050613aa96000830184612daf565b8181036020830152613aba81613a71565b905092915050565b7f5472616465720000000000000000000000000000000000000000000000000000600082015250565b6000613af8600683612de4565b9150613b0382613ac2565b602082019050919050565b6000604082019050613b236000830184612daf565b8181036020830152613b3481613aeb565b905092915050565b7f436f6e73756d6572000000000000000000000000000000000000000000000000600082015250565b6000613b72600883612de4565b9150613b7d82613b3c565b602082019050919050565b6000604082019050613b9d6000830184612daf565b8181036020830152613bae81613b65565b905092915050565b7f4e487b7100000000000000000000000000000000000000000000000000000000600052603260045260246000fd5b7f4552433732313a206f776e657220717565727920666f72206e6f6e657869737460008201527f656e7420746f6b656e0000000000000000000000000000000000000000000000602082015250565b6000613c41602983612de4565b9150613c4c82613be5565b604082019050919050565b60006020820190508181036000830152613c7081613c34565b9050919050565b7f4552433732313a2062616c616e636520717565727920666f7220746865207a6560008201527f726f206164647265737300000000000000000000000000000000000000000000602082015250565b6000613cd3602a83612de4565b9150613cde82613c77565b604082019050919050565b60006020820190508181036000830152613d0281613cc6565b9050919050565b7f4f776e61626c653a2063616c6c6572206973206e6f7420746865206f776e6572600082015250565b6000613d3f602083612de4565b9150613d4a82613d09565b602082019050919050565b60006020820190508181036000830152613d6e81613d32565b9050919050565b7f4552433732313a20617070726f766520746f2063616c6c657200000000000000600082015250565b6000613dab601983612de4565b9150613db682613d75565b602082019050919050565b60006020820190508181036000830152613dda81613d9e565b9050919050565b7f45524337323155524953746f726167653a2055524920717565727920666f722060008201527f6e6f6e6578697374656e7420746f6b656e000000000000000000000000000000602082015250565b6000613e3d603183612de4565b9150613e4882613de1565b604082019050919050565b60006020820190508181036000830152613e6c81613e30565b9050919050565b600081905092915050565b6000613e8982612dd9565b613e938185613e73565b9350613ea3818560208601612df5565b80840191505092915050565b6000613ebb8285613e7e565b9150613ec78284613e7e565b91508190509392505050565b7f4f776e61626c653a206e6577206f776e657220697320746865207a65726f206160008201527f6464726573730000000000000000000000000000000000000000000000000000602082015250565b6000613f2f602683612de4565b9150613f3a82613ed3565b604082019050919050565b60006020820190508181036000830152613f5e81613f22565b9050919050565b7f4552433732313a206d696e7420746f20746865207a65726f2061646472657373600082015250565b6000613f9b602083612de4565b9150613fa682613f65565b602082019050919050565b60006020820190508181036000830152613fca81613f8e565b9050919050565b7f4552433732313a20746f6b656e20616c7265616479206d696e74656400000000600082015250565b6000614007601c83612de4565b915061401282613fd1565b602082019050919050565b6000602082019050818103600083015261403681613ffa565b9050919050565b600061404882612bdc565b915061405383612bdc565b9250827fffffffffffffffffffffffffffffffffffffffffffffffffffffffffffffffff0382111561408857614087613461565b5b828201905092915050565b7f45524337323155524953746f726167653a2055524920736574206f66206e6f6e60008201527f6578697374656e7420746f6b656e000000000000000000000000000000000000602082015250565b60006140ef602e83612de4565b91506140fa82614093565b604082019050919050565b6000602082019050818103600083015261411e816140e2565b9050919050565b7f4552433732313a206f70657261746f7220717565727920666f72206e6f6e657860008201527f697374656e7420746f6b656e0000000000000000000000000000000000000000602082015250565b6000614181602c83612de4565b915061418c82614125565b604082019050919050565b600060208201905081810360008301526141b081614174565b9050919050565b7f4552433732313a207472616e73666572206f6620746f6b656e2074686174206960008201527f73206e6f74206f776e0000000000000000000000000000000000000000000000602082015250565b6000614213602983612de4565b915061421e826141b7565b604082019050919050565b6000602082019050818103600083015261424281614206565b9050919050565b7f4552433732313a207472616e7366657220746f20746865207a65726f2061646460008201527f7265737300000000000000000000000000000000000000000000000000000000602082015250565b60006142a5602483612de4565b91506142b082614249565b604082019050919050565b600060208201905081810360008301526142d481614298565b9050919050565b7f4552433732313a207472616e7366657220746f206e6f6e20455243373231526560008201527f63656976657220696d706c656d656e7465720000000000000000000000000000602082015250565b6000614337603283612de4565b9150614342826142db565b604082019050919050565b600060208201905081810360008301526143668161432a565b9050919050565b7f4552433732314d657461646174613a2055524920717565727920666f72206e6f60008201527f6e6578697374656e7420746f6b656e0000000000000000000000000000000000602082015250565b60006143c9602f83612de4565b91506143d48261436d565b604082019050919050565b600060208201905081810360008301526143f8816143bc565b9050919050565b600081519050919050565b600082825260208201905092915050565b6000614426826143ff565b614430818561440a565b9350614440818560208601612df5565b61444981612e28565b840191505092915050565b60006080820190506144696000830187612c71565b6144766020830186612c71565b6144836040830185612daf565b8181036060830152614495818461441b565b905095945050505050565b6000815190506144af81612cc7565b92915050565b6000602082840312156144cb576144ca612bd2565b5b60006144d9848285016144a0565b91505092915050565b60006144ed82612bdc565b91507fffffffffffffffffffffffffffffffffffffffffffffffffffffffffffffffff820361451f5761451e613461565b5b600182019050919050565b7f4e487b7100000000000000000000000000000000000000000000000000000000600052601260045260246000fd5b600061456482612bdc565b915061456f83612bdc565b92508261457f5761457e61452a565b5b828204905092915050565b600061459582612bdc565b91506145a083612bdc565b9250826145b0576145af61452a565b5b82820690509291505056fea2646970667358221220186c49444e71e8cd3a76d75f34e396b75eb772bf5007e9a346a9d1b00944f03e64736f6c634300080d0033",
  "immutableReferences": {},
  "source": "// SPDX-License-Identifier: MIT\r\npragma solidity >=0.4.22 <0.9.0;\r\n\r\nimport \"@openzeppelin/contracts/token/ERC721/extensions/ERC721URIStorage.sol\";\r\nimport \"@openzeppelin/contracts/access/Ownable.sol\";\r\nimport \"@openzeppelin/contracts/utils/Counters.sol\";\r\n\r\ncontract fst_erc_721 is ERC721URIStorage, Ownable {\r\n    using Counters for Counters.Counter;\r\n    Counters.Counter private _tokenIds;\r\n\r\n    event PSCCreate(address indexed owner, uint256 tokenId, string tokenURI);\r\n    event PSCTransfer(address indexed from, address indexed to, uint256 tokenId);\r\n    event PSCUpdateRole(uint256 tokenId, string Role);\r\n    event PSCAddedToAllPSCs(uint256 tokenId);\r\n\r\n    enum Role {Manufacture, Administrator, Consumer, Trader, Worker}\r\n\r\n    mapping(uint256 => address) public PSCsOwner;\r\n    mapping(uint256 => Role[]) public PSCsRole;\r\n    mapping(address => Role) public addressToRole;\r\n    uint256[] public AllPSCs;\r\n\r\n    modifier OnlyPSCsOwner(uint256 tokenId) {\r\n        require(ownerOf(tokenId) == msg.sender, \"Only PSCsOwner can access\");\r\n        _;\r\n    }\r\n\r\n    modifier OnlyManufacture() {\r\n        require(getCurrentRole(msg.sender) == Role.Manufacture, \"Only Manufacture can create PSCs\");\r\n        _;\r\n    }\r\n\r\n    constructor() ERC721(\"Product Safety Certificates\", \"PSC\") Ownable() {}\r\n\r\n    function getCurrentRole(address user) public view returns (Role) {\r\n        uint256 tokenId = _tokenIds.current();\r\n        uint256 rolesCount = PSCsRole[tokenId].length;\r\n\r\n        if (rolesCount > 0) {\r\n            return PSCsRole[tokenId][rolesCount - 1];\r\n        } else {\r\n            return Role.Manufacture;\r\n        }\r\n    }\r\n\r\n    function register(address userAddress, Role newRole) public {\r\n        // Require that the specified role is valid\r\n        require(\r\n            newRole == Role.Manufacture || \r\n            newRole == Role.Administrator || \r\n            newRole == Role.Consumer || \r\n            newRole == Role.Trader || \r\n            newRole == Role.Worker,\r\n            \"Invalid role\"\r\n        );\r\n\r\n        // Check if the specified address has a role assigned\r\n        require(addressToRole[userAddress] == Role(0), \"Address is already registered\");\r\n\r\n        // Assign the specified role to the address\r\n        addressToRole[userAddress] = newRole;\r\n    }\r\n\r\n    function login(address userAddress) public view returns (string memory) {\r\n        // Check if the specified address is registered\r\n        require(addressToRole[userAddress] != Role(0), \"Address is not registered\");\r\n\r\n        // Retrieve the role associated with the specified address\r\n        Role role = addressToRole[userAddress];\r\n\r\n        // Convert the Role enum to a string\r\n        string memory roleString;\r\n        if (role == Role.Manufacture) {\r\n            roleString = \"Manufacturer\";\r\n        } else if (role == Role.Administrator) {\r\n            roleString = \"Administrator\";\r\n        } else if (role == Role.Consumer) {\r\n            roleString = \"Consumer\";\r\n        } else if (role == Role.Trader) {\r\n            roleString = \"Trader\";\r\n        } else if (role == Role.Worker) {\r\n            roleString = \"Worker\";\r\n        }\r\n\r\n        // Return the role as a string\r\n        return roleString;\r\n    }\r\n\r\n\r\n\r\n    function createPSC(address to) external OnlyManufacture returns (uint256) {\r\n        _tokenIds.increment();\r\n        uint256 newPSCsID = _tokenIds.current();\r\n        _mint(to, newPSCsID);\r\n        _setTokenURI(newPSCsID, \"\");  // You can set the URI as needed\r\n        PSCsOwner[newPSCsID] = to;\r\n        PSCsRole[newPSCsID].push(Role.Manufacture);\r\n\r\n        AllPSCs.push(newPSCsID);\r\n\r\n        emit PSCCreate(to, newPSCsID, \"\");  // You can provide the actual token URI\r\n        emit PSCAddedToAllPSCs(newPSCsID);\r\n\r\n        return newPSCsID;\r\n    }\r\n\r\n    function transferPSC(address to, uint256 tokenId, Role newRole) external OnlyPSCsOwner(tokenId) {\r\n        require(msg.sender != to, \"Cannot transfer to current owner\");\r\n        safeTransferFrom(msg.sender, to, tokenId);\r\n        PSCsRole[tokenId].push(newRole);\r\n\r\n        if (newRole == Role.Worker) {\r\n            emit PSCTransfer(msg.sender, to, tokenId);\r\n            emit PSCUpdateRole(tokenId, \"Worker\");\r\n        } else if (newRole == Role.Trader) {\r\n            emit PSCTransfer(msg.sender, to, tokenId);\r\n            emit PSCUpdateRole(tokenId, \"Trader\");\r\n        } else if (newRole == Role.Consumer) {\r\n            emit PSCTransfer(msg.sender, to, tokenId);\r\n            emit PSCUpdateRole(tokenId, \"Consumer\");\r\n        }\r\n    }\r\n\r\n    function getPreviousOwner(uint256 tokenId) public view returns (address) {\r\n        require(tokenId > 0 && tokenId <= _tokenIds.current(), \"Invalid tokenId\");\r\n\r\n        if (tokenId > 1) {\r\n            uint256 previousTokenId = tokenId - 1;\r\n            return PSCsOwner[previousTokenId];\r\n        } else {\r\n            return owner();\r\n        }\r\n    }\r\n\r\n    function getAllPSCs() public view returns (uint256[] memory) {\r\n        return AllPSCs;\r\n    }\r\n}\r\n",
  "sourcePath": "C:\\Users\\17165\\Desktop\\ps2\\contracts\\fst_erc_721.sol",
  "compiler": {
    "name": "solc",
    "version": "0.8.13+commit.abaa5c0e.Emscripten.clang"
  },
  "schemaVersion": "3.4.16",
  "updatedAt": "2023-11-19T06:58:35.755Z",
  "networkType": "ethereum",
  "devdoc": {
    "kind": "dev",
    "methods": {
      "approve(address,uint256)": {
        "details": "See {IERC721-approve}."
      },
      "balanceOf(address)": {
        "details": "See {IERC721-balanceOf}."
      },
      "getApproved(uint256)": {
        "details": "See {IERC721-getApproved}."
      },
      "isApprovedForAll(address,address)": {
        "details": "See {IERC721-isApprovedForAll}."
      },
      "name()": {
        "details": "See {IERC721Metadata-name}."
      },
      "owner()": {
        "details": "Returns the address of the current owner."
      },
      "ownerOf(uint256)": {
        "details": "See {IERC721-ownerOf}."
      },
      "renounceOwnership()": {
        "details": "Leaves the contract without owner. It will not be possible to call `onlyOwner` functions anymore. Can only be called by the current owner. NOTE: Renouncing ownership will leave the contract without an owner, thereby removing any functionality that is only available to the owner."
      },
      "safeTransferFrom(address,address,uint256)": {
        "details": "See {IERC721-safeTransferFrom}."
      },
      "safeTransferFrom(address,address,uint256,bytes)": {
        "details": "See {IERC721-safeTransferFrom}."
      },
      "setApprovalForAll(address,bool)": {
        "details": "See {IERC721-setApprovalForAll}."
      },
      "supportsInterface(bytes4)": {
        "details": "See {IERC165-supportsInterface}."
      },
      "symbol()": {
        "details": "See {IERC721Metadata-symbol}."
      },
      "tokenURI(uint256)": {
        "details": "See {IERC721Metadata-tokenURI}."
      },
      "transferFrom(address,address,uint256)": {
        "details": "See {IERC721-transferFrom}."
      },
      "transferOwnership(address)": {
        "details": "Transfers ownership of the contract to a new account (`newOwner`). Can only be called by the current owner."
      }
    },
    "version": 1
  },
  "userdoc": {
    "kind": "user",
    "methods": {},
    "version": 1
  }
}