{
  "contractName": "fst_erc_20",
  "abi": [
    {
      "inputs": [],
      "stateMutability": "nonpayable",
      "type": "constructor"
    },
    {
      "anonymous": false,
      "inputs": [
        {
          "indexed": true,
          "internalType": "address",
          "name": "owner",
          "type": "address"
        },
        {
          "indexed": true,
          "internalType": "address",
          "name": "spender",
          "type": "address"
        },
        {
          "indexed": false,
          "internalType": "uint256",
          "name": "value",
          "type": "uint256"
        }
      ],
      "name": "Approval",
      "type": "event"
    },
    {
      "anonymous": false,
      "inputs": [
        {
          "indexed": true,
          "internalType": "address",
          "name": "_from",
          "type": "address"
        },
        {
          "indexed": true,
          "internalType": "address",
          "name": "_to",
          "type": "address"
        },
        {
          "indexed": false,
          "internalType": "uint256",
          "name": "_value",
          "type": "uint256"
        }
      ],
      "name": "Receive",
      "type": "event"
    },
    {
      "anonymous": false,
      "inputs": [
        {
          "indexed": true,
          "internalType": "address",
          "name": "_to",
          "type": "address"
        },
        {
          "indexed": false,
          "internalType": "uint256",
          "name": "_value",
          "type": "uint256"
        }
      ],
      "name": "ReceivefromPool",
      "type": "event"
    },
    {
      "anonymous": false,
      "inputs": [
        {
          "indexed": true,
          "internalType": "address",
          "name": "from",
          "type": "address"
        },
        {
          "indexed": true,
          "internalType": "address",
          "name": "to",
          "type": "address"
        },
        {
          "indexed": false,
          "internalType": "uint256",
          "name": "value",
          "type": "uint256"
        }
      ],
      "name": "Transfer",
      "type": "event"
    },
    {
      "anonymous": false,
      "inputs": [
        {
          "indexed": true,
          "internalType": "address",
          "name": "_from",
          "type": "address"
        },
        {
          "indexed": false,
          "internalType": "uint256",
          "name": "_value",
          "type": "uint256"
        }
      ],
      "name": "TransfertoPool",
      "type": "event"
    },
    {
      "anonymous": false,
      "inputs": [
        {
          "indexed": true,
          "internalType": "address",
          "name": "_from",
          "type": "address"
        },
        {
          "indexed": true,
          "internalType": "address",
          "name": "_to",
          "type": "address"
        },
        {
          "indexed": false,
          "internalType": "uint256",
          "name": "_value",
          "type": "uint256"
        }
      ],
      "name": "send",
      "type": "event"
    },
    {
      "inputs": [],
      "name": "FSPsPool",
      "outputs": [
        {
          "internalType": "uint256",
          "name": "",
          "type": "uint256"
        }
      ],
      "stateMutability": "view",
      "type": "function",
      "constant": true
    },
    {
      "inputs": [
        {
          "internalType": "address",
          "name": "owner",
          "type": "address"
        },
        {
          "internalType": "address",
          "name": "spender",
          "type": "address"
        }
      ],
      "name": "allowance",
      "outputs": [
        {
          "internalType": "uint256",
          "name": "",
          "type": "uint256"
        }
      ],
      "stateMutability": "view",
      "type": "function",
      "constant": true
    },
    {
      "inputs": [
        {
          "internalType": "address",
          "name": "spender",
          "type": "address"
        },
        {
          "internalType": "uint256",
          "name": "amount",
          "type": "uint256"
        }
      ],
      "name": "approve",
      "outputs": [
        {
          "internalType": "bool",
          "name": "",
          "type": "bool"
        }
      ],
      "stateMutability": "nonpayable",
      "type": "function"
    },
    {
      "inputs": [
        {
          "internalType": "address",
          "name": "account",
          "type": "address"
        }
      ],
      "name": "balanceOf",
      "outputs": [
        {
          "internalType": "uint256",
          "name": "",
          "type": "uint256"
        }
      ],
      "stateMutability": "view",
      "type": "function",
      "constant": true
    },
    {
      "inputs": [],
      "name": "decimals",
      "outputs": [
        {
          "internalType": "uint8",
          "name": "",
          "type": "uint8"
        }
      ],
      "stateMutability": "view",
      "type": "function",
      "constant": true
    },
    {
      "inputs": [
        {
          "internalType": "address",
          "name": "spender",
          "type": "address"
        },
        {
          "internalType": "uint256",
          "name": "subtractedValue",
          "type": "uint256"
        }
      ],
      "name": "decreaseAllowance",
      "outputs": [
        {
          "internalType": "bool",
          "name": "",
          "type": "bool"
        }
      ],
      "stateMutability": "nonpayable",
      "type": "function"
    },
    {
      "inputs": [
        {
          "internalType": "address",
          "name": "spender",
          "type": "address"
        },
        {
          "internalType": "uint256",
          "name": "addedValue",
          "type": "uint256"
        }
      ],
      "name": "increaseAllowance",
      "outputs": [
        {
          "internalType": "bool",
          "name": "",
          "type": "bool"
        }
      ],
      "stateMutability": "nonpayable",
      "type": "function"
    },
    {
      "inputs": [],
      "name": "name",
      "outputs": [
        {
          "internalType": "string",
          "name": "",
          "type": "string"
        }
      ],
      "stateMutability": "view",
      "type": "function",
      "constant": true
    },
    {
      "inputs": [],
      "name": "symbol",
      "outputs": [
        {
          "internalType": "string",
          "name": "",
          "type": "string"
        }
      ],
      "stateMutability": "view",
      "type": "function",
      "constant": true
    },
    {
      "inputs": [],
      "name": "totalSupply",
      "outputs": [
        {
          "internalType": "uint256",
          "name": "",
          "type": "uint256"
        }
      ],
      "stateMutability": "view",
      "type": "function",
      "constant": true
    },
    {
      "inputs": [
        {
          "internalType": "address",
          "name": "recipient",
          "type": "address"
        },
        {
          "internalType": "uint256",
          "name": "amount",
          "type": "uint256"
        }
      ],
      "name": "transfer",
      "outputs": [
        {
          "internalType": "bool",
          "name": "",
          "type": "bool"
        }
      ],
      "stateMutability": "nonpayable",
      "type": "function"
    },
    {
      "inputs": [
        {
          "internalType": "address",
          "name": "sender",
          "type": "address"
        },
        {
          "internalType": "address",
          "name": "recipient",
          "type": "address"
        },
        {
          "internalType": "uint256",
          "name": "amount",
          "type": "uint256"
        }
      ],
      "name": "transferFrom",
      "outputs": [
        {
          "internalType": "bool",
          "name": "",
          "type": "bool"
        }
      ],
      "stateMutability": "nonpayable",
      "type": "function"
    },
    {
      "inputs": [
        {
          "internalType": "uint256",
          "name": "amount",
          "type": "uint256"
        }
      ],
      "name": "TransferFSPsToPool",
      "outputs": [],
      "stateMutability": "nonpayable",
      "type": "function"
    },
    {
      "inputs": [
        {
          "internalType": "uint256",
          "name": "amount",
          "type": "uint256"
        }
      ],
      "name": "ReceiveFSPsFromPool",
      "outputs": [],
      "stateMutability": "nonpayable",
      "type": "function"
    },
    {
      "inputs": [
        {
          "internalType": "address",
          "name": "to",
          "type": "address"
        },
        {
          "internalType": "uint256",
          "name": "amount",
          "type": "uint256"
        }
      ],
      "name": "SendTo",
      "outputs": [],
      "stateMutability": "nonpayable",
      "type": "function"
    },
    {
      "inputs": [
        {
          "internalType": "address",
          "name": "from",
          "type": "address"
        },
        {
          "internalType": "uint256",
          "name": "amount",
          "type": "uint256"
        }
      ],
      "name": "ReceiveFrom",
      "outputs": [],
      "stateMutability": "nonpayable",
      "type": "function"
    }
  ],
  "bytecode": "0x60806040523480156200001157600080fd5b506040518060400160405280601281526020017f466f6f642053616665747920506f696e747300000000000000000000000000008152506040518060400160405280600481526020017f465350730000000000000000000000000000000000000000000000000000000081525081600390805190602001906200009692919062000275565b508060049080519060200190620000af92919062000275565b505050620000c26200010360201b60201c565b60ff16600a620000d39190620004b2565b620186a0620000e3919062000503565b600581905550620000fd336005546200010c60201b60201c565b620006d6565b60006012905090565b600073ffffffffffffffffffffffffffffffffffffffff168273ffffffffffffffffffffffffffffffffffffffff16036200017e576040517f08c379a00000000000000000000000000000000000000000000000000000000081526004016200017590620005c5565b60405180910390fd5b62000192600083836200027060201b60201c565b8060026000828254620001a69190620005e7565b92505081905550806000808473ffffffffffffffffffffffffffffffffffffffff1673ffffffffffffffffffffffffffffffffffffffff1681526020019081526020016000206000828254620001fd9190620005e7565b925050819055508173ffffffffffffffffffffffffffffffffffffffff16600073ffffffffffffffffffffffffffffffffffffffff167fddf252ad1be2c89b69c2b068fc378daa952ba7f163c4a11628f55a4df523b3ef8360405162000264919062000655565b60405180910390a35050565b505050565b8280546200028390620006a1565b90600052602060002090601f016020900481019282620002a75760008555620002f3565b82601f10620002c257805160ff1916838001178555620002f3565b82800160010185558215620002f3579182015b82811115620002f2578251825591602001919060010190620002d5565b5b50905062000302919062000306565b5090565b5b808211156200032157600081600090555060010162000307565b5090565b7f4e487b7100000000000000000000000000000000000000000000000000000000600052601160045260246000fd5b60008160011c9050919050565b6000808291508390505b6001851115620003b3578086048111156200038b576200038a62000325565b5b60018516156200039b5780820291505b8081029050620003ab8562000354565b94506200036b565b94509492505050565b600082620003ce5760019050620004a1565b81620003de5760009050620004a1565b8160018114620003f75760028114620004025762000438565b6001915050620004a1565b60ff84111562000417576200041662000325565b5b8360020a91508482111562000431576200043062000325565b5b50620004a1565b5060208310610133831016604e8410600b8410161715620004725782820a9050838111156200046c576200046b62000325565b5b620004a1565b62000481848484600162000361565b925090508184048111156200049b576200049a62000325565b5b81810290505b9392505050565b6000819050919050565b6000620004bf82620004a8565b9150620004cc83620004a8565b9250620004fb7fffffffffffffffffffffffffffffffffffffffffffffffffffffffffffffffff8484620003bc565b905092915050565b60006200051082620004a8565b91506200051d83620004a8565b9250817fffffffffffffffffffffffffffffffffffffffffffffffffffffffffffffffff048311821515161562000559576200055862000325565b5b828202905092915050565b600082825260208201905092915050565b7f45524332303a206d696e7420746f20746865207a65726f206164647265737300600082015250565b6000620005ad601f8362000564565b9150620005ba8262000575565b602082019050919050565b60006020820190508181036000830152620005e0816200059e565b9050919050565b6000620005f482620004a8565b91506200060183620004a8565b9250827fffffffffffffffffffffffffffffffffffffffffffffffffffffffffffffffff0382111562000639576200063862000325565b5b828201905092915050565b6200064f81620004a8565b82525050565b60006020820190506200066c600083018462000644565b92915050565b7f4e487b7100000000000000000000000000000000000000000000000000000000600052602260045260246000fd5b60006002820490506001821680620006ba57607f821691505b602082108103620006d057620006cf62000672565b5b50919050565b6118ed80620006e66000396000f3fe608060405234801561001057600080fd5b50600436106101005760003560e01c806370a0823111610097578063a9059cbb11610066578063a9059cbb146102c1578063d0388f59146102f1578063dd62ed3e1461030d578063f2c427d41461033d57610100565b806370a08231146102275780637552b0161461025757806395d89b4114610273578063a457c2d71461029157610100565b806323b872dd116100d357806323b872dd1461018d578063313ce567146101bd57806339509351146101db57806365d0e55e1461020b57610100565b806306fdde0314610105578063095ea7b3146101235780630f8285691461015357806318160ddd1461016f575b600080fd5b61010d61035b565b60405161011a9190610fdd565b60405180910390f35b61013d60048036038101906101389190611098565b6103ed565b60405161014a91906110f3565b60405180910390f35b61016d6004803603810190610168919061110e565b61040b565b005b6101776104cb565b604051610184919061114a565b60405180910390f35b6101a760048036038101906101a29190611165565b6104d5565b6040516101b491906110f3565b60405180910390f35b6101c56105d6565b6040516101d291906111d4565b60405180910390f35b6101f560048036038101906101f09190611098565b6105df565b60405161020291906110f3565b60405180910390f35b6102256004803603810190610220919061110e565b61068b565b005b610241600480360381019061023c91906111ef565b610745565b60405161024e919061114a565b60405180910390f35b610271600480360381019061026c9190611098565b61078d565b005b61027b61084c565b6040516102889190610fdd565b60405180910390f35b6102ab60048036038101906102a69190611098565b6108de565b6040516102b891906110f3565b60405180910390f35b6102db60048036038101906102d69190611098565b6109d2565b6040516102e891906110f3565b60405180910390f35b61030b60048036038101906103069190611098565b6109f0565b005b6103276004803603810190610322919061121c565b610a64565b604051610334919061114a565b60405180910390f35b610345610aeb565b604051610352919061114a565b60405180910390f35b60606003805461036a9061128b565b80601f01602080910402602001604051908101604052809291908181526020018280546103969061128b565b80156103e35780601f106103b8576101008083540402835291602001916103e3565b820191906000526020600020905b8154815290600101906020018083116103c657829003601f168201915b5050505050905090565b60006104016103fa610af1565b8484610af9565b6001905092915050565b61041433610745565b811115610456576040517f08c379a000000000000000000000000000000000000000000000000000000000815260040161044d90611308565b60405180910390fd5b610461333083610cc2565b80600560008282546104739190611357565b925050819055503373ffffffffffffffffffffffffffffffffffffffff167fc4807ee188c42685968e6c1703bfca0953e59d1041cce01f132ed903db89b331826040516104c0919061114a565b60405180910390a250565b6000600254905090565b60006104e2848484610cc2565b6000600160008673ffffffffffffffffffffffffffffffffffffffff1673ffffffffffffffffffffffffffffffffffffffff168152602001908152602001600020600061052d610af1565b73ffffffffffffffffffffffffffffffffffffffff1673ffffffffffffffffffffffffffffffffffffffff168152602001908152602001600020549050828110156105ad576040517f08c379a00000000000000000000000000000000000000000000000000000000081526004016105a49061141f565b60405180910390fd5b6105ca856105b9610af1565b85846105c5919061143f565b610af9565b60019150509392505050565b60006012905090565b60006106816105ec610af1565b8484600160006105fa610af1565b73ffffffffffffffffffffffffffffffffffffffff1673ffffffffffffffffffffffffffffffffffffffff16815260200190815260200160002060008873ffffffffffffffffffffffffffffffffffffffff1673ffffffffffffffffffffffffffffffffffffffff1681526020019081526020016000205461067c9190611357565b610af9565b6001905092915050565b6005548111156106d0576040517f08c379a00000000000000000000000000000000000000000000000000000000081526004016106c7906114bf565b60405180910390fd5b6106db303383610cc2565b80600560008282546106ed919061143f565b925050819055503373ffffffffffffffffffffffffffffffffffffffff167f535eab4245526a619b0d71c0c32b5d33a15d528127c45efbff43f15df8d0b8d88260405161073a919061114a565b60405180910390a250565b60008060008373ffffffffffffffffffffffffffffffffffffffff1673ffffffffffffffffffffffffffffffffffffffff168152602001908152602001600020549050919050565b61079633610745565b8111156107d8576040517f08c379a00000000000000000000000000000000000000000000000000000000081526004016107cf9061152b565b60405180910390fd5b6107e3338383610cc2565b8173ffffffffffffffffffffffffffffffffffffffff163373ffffffffffffffffffffffffffffffffffffffff167f0779afe64dae4fc3b6330d827d7dd4d4e251a70908c335b3649bd032c89f45fa83604051610840919061114a565b60405180910390a35050565b60606004805461085b9061128b565b80601f01602080910402602001604051908101604052809291908181526020018280546108879061128b565b80156108d45780601f106108a9576101008083540402835291602001916108d4565b820191906000526020600020905b8154815290600101906020018083116108b757829003601f168201915b5050505050905090565b600080600160006108ed610af1565b73ffffffffffffffffffffffffffffffffffffffff1673ffffffffffffffffffffffffffffffffffffffff16815260200190815260200160002060008573ffffffffffffffffffffffffffffffffffffffff1673ffffffffffffffffffffffffffffffffffffffff168152602001908152602001600020549050828110156109aa576040517f08c379a00000000000000000000000000000000000000000000000000000000081526004016109a1906115bd565b60405180910390fd5b6109c76109b5610af1565b8585846109c2919061143f565b610af9565b600191505092915050565b60006109e66109df610af1565b8484610cc2565b6001905092915050565b6109fb823383610cc2565b3373ffffffffffffffffffffffffffffffffffffffff168273ffffffffffffffffffffffffffffffffffffffff167ffd19781f43410d9594fd4c02dd1d98dbe99099cbd222d5851a6e183c468d33ca83604051610a58919061114a565b60405180910390a35050565b6000600160008473ffffffffffffffffffffffffffffffffffffffff1673ffffffffffffffffffffffffffffffffffffffff16815260200190815260200160002060008373ffffffffffffffffffffffffffffffffffffffff1673ffffffffffffffffffffffffffffffffffffffff16815260200190815260200160002054905092915050565b60055481565b600033905090565b600073ffffffffffffffffffffffffffffffffffffffff168373ffffffffffffffffffffffffffffffffffffffff1603610b68576040517f08c379a0000000000000000000000000000000000000000000000000000000008152600401610b5f9061164f565b60405180910390fd5b600073ffffffffffffffffffffffffffffffffffffffff168273ffffffffffffffffffffffffffffffffffffffff1603610bd7576040517f08c379a0000000000000000000000000000000000000000000000000000000008152600401610bce906116e1565b60405180910390fd5b80600160008573ffffffffffffffffffffffffffffffffffffffff1673ffffffffffffffffffffffffffffffffffffffff16815260200190815260200160002060008473ffffffffffffffffffffffffffffffffffffffff1673ffffffffffffffffffffffffffffffffffffffff168152602001908152602001600020819055508173ffffffffffffffffffffffffffffffffffffffff168373ffffffffffffffffffffffffffffffffffffffff167f8c5be1e5ebec7d5bd14f71427d1e84f3dd0314c0f7b2291e5b200ac8c7c3b92583604051610cb5919061114a565b60405180910390a3505050565b600073ffffffffffffffffffffffffffffffffffffffff168373ffffffffffffffffffffffffffffffffffffffff1603610d31576040517f08c379a0000000000000000000000000000000000000000000000000000000008152600401610d2890611773565b60405180910390fd5b600073ffffffffffffffffffffffffffffffffffffffff168273ffffffffffffffffffffffffffffffffffffffff1603610da0576040517f08c379a0000000000000000000000000000000000000000000000000000000008152600401610d9790611805565b60405180910390fd5b610dab838383610f3f565b60008060008573ffffffffffffffffffffffffffffffffffffffff1673ffffffffffffffffffffffffffffffffffffffff16815260200190815260200160002054905081811015610e31576040517f08c379a0000000000000000000000000000000000000000000000000000000008152600401610e2890611897565b60405180910390fd5b8181610e3d919061143f565b6000808673ffffffffffffffffffffffffffffffffffffffff1673ffffffffffffffffffffffffffffffffffffffff16815260200190815260200160002081905550816000808573ffffffffffffffffffffffffffffffffffffffff1673ffffffffffffffffffffffffffffffffffffffff1681526020019081526020016000206000828254610ecd9190611357565b925050819055508273ffffffffffffffffffffffffffffffffffffffff168473ffffffffffffffffffffffffffffffffffffffff167fddf252ad1be2c89b69c2b068fc378daa952ba7f163c4a11628f55a4df523b3ef84604051610f31919061114a565b60405180910390a350505050565b505050565b600081519050919050565b600082825260208201905092915050565b60005b83811015610f7e578082015181840152602081019050610f63565b83811115610f8d576000848401525b50505050565b6000601f19601f8301169050919050565b6000610faf82610f44565b610fb98185610f4f565b9350610fc9818560208601610f60565b610fd281610f93565b840191505092915050565b60006020820190508181036000830152610ff78184610fa4565b905092915050565b600080fd5b600073ffffffffffffffffffffffffffffffffffffffff82169050919050565b600061102f82611004565b9050919050565b61103f81611024565b811461104a57600080fd5b50565b60008135905061105c81611036565b92915050565b6000819050919050565b61107581611062565b811461108057600080fd5b50565b6000813590506110928161106c565b92915050565b600080604083850312156110af576110ae610fff565b5b60006110bd8582860161104d565b92505060206110ce85828601611083565b9150509250929050565b60008115159050919050565b6110ed816110d8565b82525050565b600060208201905061110860008301846110e4565b92915050565b60006020828403121561112457611123610fff565b5b600061113284828501611083565b91505092915050565b61114481611062565b82525050565b600060208201905061115f600083018461113b565b92915050565b60008060006060848603121561117e5761117d610fff565b5b600061118c8682870161104d565b935050602061119d8682870161104d565b92505060406111ae86828701611083565b9150509250925092565b600060ff82169050919050565b6111ce816111b8565b82525050565b60006020820190506111e960008301846111c5565b92915050565b60006020828403121561120557611204610fff565b5b60006112138482850161104d565b91505092915050565b6000806040838503121561123357611232610fff565b5b60006112418582860161104d565b92505060206112528582860161104d565b9150509250929050565b7f4e487b7100000000000000000000000000000000000000000000000000000000600052602260045260246000fd5b600060028204905060018216806112a357607f821691505b6020821081036112b6576112b561125c565b5b50919050565b7f496e73756666696369656e742046535073000000000000000000000000000000600082015250565b60006112f2601183610f4f565b91506112fd826112bc565b602082019050919050565b60006020820190508181036000830152611321816112e5565b9050919050565b7f4e487b7100000000000000000000000000000000000000000000000000000000600052601160045260246000fd5b600061136282611062565b915061136d83611062565b9250827fffffffffffffffffffffffffffffffffffffffffffffffffffffffffffffffff038211156113a2576113a1611328565b5b828201905092915050565b7f45524332303a207472616e7366657220616d6f756e742065786365656473206160008201527f6c6c6f77616e6365000000000000000000000000000000000000000000000000602082015250565b6000611409602883610f4f565b9150611414826113ad565b604082019050919050565b60006020820190508181036000830152611438816113fc565b9050919050565b600061144a82611062565b915061145583611062565b92508282101561146857611467611328565b5b828203905092915050565b7f496e73756666696369656e74204653507320696e2074686520706f6f6c000000600082015250565b60006114a9601d83610f4f565b91506114b482611473565b602082019050919050565b600060208201905081810360008301526114d88161149c565b9050919050565b7f496e73756666696369656e742062616c616e6365000000000000000000000000600082015250565b6000611515601483610f4f565b9150611520826114df565b602082019050919050565b6000602082019050818103600083015261154481611508565b9050919050565b7f45524332303a2064656372656173656420616c6c6f77616e63652062656c6f7760008201527f207a65726f000000000000000000000000000000000000000000000000000000602082015250565b60006115a7602583610f4f565b91506115b28261154b565b604082019050919050565b600060208201905081810360008301526115d68161159a565b9050919050565b7f45524332303a20617070726f76652066726f6d20746865207a65726f2061646460008201527f7265737300000000000000000000000000000000000000000000000000000000602082015250565b6000611639602483610f4f565b9150611644826115dd565b604082019050919050565b600060208201905081810360008301526116688161162c565b9050919050565b7f45524332303a20617070726f766520746f20746865207a65726f20616464726560008201527f7373000000000000000000000000000000000000000000000000000000000000602082015250565b60006116cb602283610f4f565b91506116d68261166f565b604082019050919050565b600060208201905081810360008301526116fa816116be565b9050919050565b7f45524332303a207472616e736665722066726f6d20746865207a65726f20616460008201527f6472657373000000000000000000000000000000000000000000000000000000602082015250565b600061175d602583610f4f565b915061176882611701565b604082019050919050565b6000602082019050818103600083015261178c81611750565b9050919050565b7f45524332303a207472616e7366657220746f20746865207a65726f206164647260008201527f6573730000000000000000000000000000000000000000000000000000000000602082015250565b60006117ef602383610f4f565b91506117fa82611793565b604082019050919050565b6000602082019050818103600083015261181e816117e2565b9050919050565b7f45524332303a207472616e7366657220616d6f756e742065786365656473206260008201527f616c616e63650000000000000000000000000000000000000000000000000000602082015250565b6000611881602683610f4f565b915061188c82611825565b604082019050919050565b600060208201905081810360008301526118b081611874565b905091905056fea26469706673582212209066d4c30496b7c1773991ca96542b17ff09079887052b1ea653e34754055cb464736f6c634300080d0033",
  "immutableReferences": {},
  "source": "// SPDX-License-Identifier: MIT\r\npragma solidity >=0.4.22 <0.9.0;\r\n\r\nimport \"@openzeppelin/contracts/token/ERC20/ERC20.sol\";\r\n\r\ncontract fst_erc_20 is ERC20 {\r\n    // init the token we will use in our FSPs \r\n    // the name of the token is Food Safety Points - FSPs (FT)\r\n    // FSPs can be received or sent to other people in this system\r\n    uint256 public FSPsPool;\r\n\r\n    //event\r\n    event ReceivefromPool(address indexed _to, uint256 _value);\r\n    event TransfertoPool(address indexed _from, uint256 _value);\r\n    event send(address indexed _from, address indexed _to, uint256 _value);\r\n    event Receive(address indexed _from, address indexed _to, uint256 _value);\r\n\r\n\r\n    constructor() ERC20(\"Food Safety Points\", \"FSPs\") {\r\n        FSPsPool = 100000 * (10 ** uint256(decimals())); // a pool with 100000 fsps\r\n        _mint(msg.sender, FSPsPool);\r\n    }\r\n\r\n\r\n    function TransferFSPsToPool(uint256 amount) external {\r\n        require(amount <= balanceOf(msg.sender), \"Insufficient FSPs\");\r\n        _transfer(msg.sender, address(this), amount);\r\n        FSPsPool += amount;\r\n        emit TransfertoPool(msg.sender, amount);\r\n    }\r\n\r\n    function ReceiveFSPsFromPool(uint256 amount) external {\r\n        require(amount <= FSPsPool, \"Insufficient FSPs in the pool\");\r\n        _transfer(address(this), msg.sender, amount);\r\n        FSPsPool -= amount;\r\n        emit ReceivefromPool(msg.sender, amount);\r\n    }\r\n\r\n    function SendTo(address to, uint256 amount) external {\r\n        require(amount <= balanceOf(msg.sender), \"Insufficient balance\");\r\n        _transfer(msg.sender, to, amount);\r\n        emit send(msg.sender, to, amount);\r\n    }\r\n\r\n    function ReceiveFrom(address from, uint256 amount) external {\r\n        _transfer(from, msg.sender, amount);\r\n        emit Receive(from, msg.sender, amount);\r\n    }\r\n}",
  "sourcePath": "C:\\Users\\17165\\Desktop\\ps2\\contracts\\fst_erc_20.sol",
  "compiler": {
    "name": "solc",
    "version": "0.8.13+commit.abaa5c0e.Emscripten.clang"
  },
  "schemaVersion": "3.4.16",
  "updatedAt": "2023-11-19T06:58:35.490Z",
  "networkType": "ethereum",
  "devdoc": {
    "kind": "dev",
    "methods": {
      "allowance(address,address)": {
        "details": "See {IERC20-allowance}."
      },
      "approve(address,uint256)": {
        "details": "See {IERC20-approve}. Requirements: - `spender` cannot be the zero address."
      },
      "balanceOf(address)": {
        "details": "See {IERC20-balanceOf}."
      },
      "decimals()": {
        "details": "Returns the number of decimals used to get its user representation. For example, if `decimals` equals `2`, a balance of `505` tokens should be displayed to a user as `5,05` (`505 / 10 ** 2`). Tokens usually opt for a value of 18, imitating the relationship between Ether and Wei. This is the value {ERC20} uses, unless this function is overloaded; NOTE: This information is only used for _display_ purposes: it in no way affects any of the arithmetic of the contract, including {IERC20-balanceOf} and {IERC20-transfer}."
      },
      "decreaseAllowance(address,uint256)": {
        "details": "Atomically decreases the allowance granted to `spender` by the caller. This is an alternative to {approve} that can be used as a mitigation for problems described in {IERC20-approve}. Emits an {Approval} event indicating the updated allowance. Requirements: - `spender` cannot be the zero address. - `spender` must have allowance for the caller of at least `subtractedValue`."
      },
      "increaseAllowance(address,uint256)": {
        "details": "Atomically increases the allowance granted to `spender` by the caller. This is an alternative to {approve} that can be used as a mitigation for problems described in {IERC20-approve}. Emits an {Approval} event indicating the updated allowance. Requirements: - `spender` cannot be the zero address."
      },
      "name()": {
        "details": "Returns the name of the token."
      },
      "symbol()": {
        "details": "Returns the symbol of the token, usually a shorter version of the name."
      },
      "totalSupply()": {
        "details": "See {IERC20-totalSupply}."
      },
      "transfer(address,uint256)": {
        "details": "See {IERC20-transfer}. Requirements: - `recipient` cannot be the zero address. - the caller must have a balance of at least `amount`."
      },
      "transferFrom(address,address,uint256)": {
        "details": "See {IERC20-transferFrom}. Emits an {Approval} event indicating the updated allowance. This is not required by the EIP. See the note at the beginning of {ERC20}. Requirements: - `sender` and `recipient` cannot be the zero address. - `sender` must have a balance of at least `amount`. - the caller must have allowance for ``sender``'s tokens of at least `amount`."
      }
    },
    "version": 1
  },
  "userdoc": {
    "kind": "user",
    "methods": {},
    "version": 1
  }
}